{
  "abi": [
    {
      "inputs": [
        {
          "internalType": "string",
          "name": "name",
          "type": "string"
        },
        {
          "internalType": "string",
          "name": "symbol",
          "type": "string"
        }
      ],
      "payable": false,
      "stateMutability": "nonpayable",
      "type": "constructor"
    },
    {
      "anonymous": false,
      "inputs": [
        {
          "indexed": true,
          "internalType": "address",
          "name": "owner",
          "type": "address"
        },
        {
          "indexed": true,
          "internalType": "address",
          "name": "approved",
          "type": "address"
        },
        {
          "indexed": true,
          "internalType": "uint256",
          "name": "tokenId",
          "type": "uint256"
        }
      ],
      "name": "Approval",
      "type": "event"
    },
    {
      "anonymous": false,
      "inputs": [
        {
          "indexed": true,
          "internalType": "address",
          "name": "owner",
          "type": "address"
        },
        {
          "indexed": true,
          "internalType": "address",
          "name": "operator",
          "type": "address"
        },
        {
          "indexed": false,
          "internalType": "bool",
          "name": "approved",
          "type": "bool"
        }
      ],
      "name": "ApprovalForAll",
      "type": "event"
    },
    {
      "anonymous": false,
      "inputs": [
        {
          "indexed": true,
          "internalType": "address",
          "name": "previousOwner",
          "type": "address"
        },
        {
          "indexed": true,
          "internalType": "address",
          "name": "newOwner",
          "type": "address"
        }
      ],
      "name": "OwnershipTransferred",
      "type": "event"
    },
    {
      "anonymous": false,
      "inputs": [
        {
          "indexed": true,
          "internalType": "address",
          "name": "from",
          "type": "address"
        },
        {
          "indexed": true,
          "internalType": "address",
          "name": "to",
          "type": "address"
        },
        {
          "indexed": true,
          "internalType": "uint256",
          "name": "tokenId",
          "type": "uint256"
        }
      ],
      "name": "Transfer",
      "type": "event"
    },
    {
      "constant": false,
      "inputs": [
        {
          "internalType": "address",
          "name": "to",
          "type": "address"
        },
        {
          "internalType": "uint256",
          "name": "tokenId",
          "type": "uint256"
        }
      ],
      "name": "approve",
      "outputs": [],
      "payable": false,
      "stateMutability": "nonpayable",
      "type": "function"
    },
    {
      "constant": true,
      "inputs": [
        {
          "internalType": "uint256",
          "name": "",
          "type": "uint256"
        }
      ],
      "name": "attributes",
      "outputs": [
        {
          "internalType": "uint256",
          "name": "plannet",
          "type": "uint256"
        },
        {
          "internalType": "uint256",
          "name": "tribe",
          "type": "uint256"
        },
        {
          "internalType": "uint256",
          "name": "health",
          "type": "uint256"
        },
        {
          "internalType": "uint256",
          "name": "critRate",
          "type": "uint256"
        },
        {
          "internalType": "uint256",
          "name": "critMultiplier",
          "type": "uint256"
        },
        {
          "internalType": "uint256",
          "name": "skill",
          "type": "uint256"
        },
        {
          "internalType": "uint256",
          "name": "attack",
          "type": "uint256"
        }
      ],
      "payable": false,
      "stateMutability": "view",
      "type": "function"
    },
    {
      "constant": true,
      "inputs": [
        {
          "internalType": "address",
          "name": "owner",
          "type": "address"
        }
      ],
      "name": "balanceOf",
      "outputs": [
        {
          "internalType": "uint256",
          "name": "",
          "type": "uint256"
        }
      ],
      "payable": false,
      "stateMutability": "view",
      "type": "function"
    },
    {
      "constant": true,
      "inputs": [],
      "name": "baseURI",
      "outputs": [
        {
          "internalType": "string",
          "name": "",
          "type": "string"
        }
      ],
      "payable": false,
      "stateMutability": "view",
      "type": "function"
    },
    {
      "constant": false,
      "inputs": [
        {
          "internalType": "uint256",
          "name": "tokenId",
          "type": "uint256"
        }
      ],
      "name": "burn",
      "outputs": [],
      "payable": false,
      "stateMutability": "nonpayable",
      "type": "function"
    },
    {
      "constant": true,
      "inputs": [],
      "name": "gemFactory",
      "outputs": [
        {
          "internalType": "address",
          "name": "",
          "type": "address"
        }
      ],
      "payable": false,
      "stateMutability": "view",
      "type": "function"
    },
    {
      "constant": true,
      "inputs": [
        {
          "internalType": "uint256",
          "name": "tokenId",
          "type": "uint256"
        }
      ],
      "name": "getApproved",
      "outputs": [
        {
          "internalType": "address",
          "name": "",
          "type": "address"
        }
      ],
      "payable": false,
      "stateMutability": "view",
      "type": "function"
    },
    {
      "constant": true,
      "inputs": [
        {
          "internalType": "uint256[]",
          "name": "ids",
          "type": "uint256[]"
        }
      ],
      "name": "getWarriors",
      "outputs": [
        {
          "components": [
            {
              "internalType": "uint256",
              "name": "plannet",
              "type": "uint256"
            },
            {
              "internalType": "uint256",
              "name": "tribe",
              "type": "uint256"
            },
            {
              "internalType": "uint256",
              "name": "health",
              "type": "uint256"
            },
            {
              "internalType": "uint256",
              "name": "critRate",
              "type": "uint256"
            },
            {
              "internalType": "uint256",
              "name": "critMultiplier",
              "type": "uint256"
            },
            {
              "internalType": "uint256",
              "name": "skill",
              "type": "uint256"
            },
            {
              "internalType": "uint256",
              "name": "attack",
              "type": "uint256"
            }
          ],
          "internalType": "struct ERC721.Attribute[]",
          "name": "",
          "type": "tuple[]"
        }
      ],
      "payable": false,
      "stateMutability": "view",
      "type": "function"
    },
    {
      "constant": true,
      "inputs": [
        {
          "internalType": "address",
          "name": "owner",
          "type": "address"
        },
        {
          "internalType": "address",
          "name": "operator",
          "type": "address"
        }
      ],
      "name": "isApprovedForAll",
      "outputs": [
        {
          "internalType": "bool",
          "name": "",
          "type": "bool"
        }
      ],
      "payable": false,
      "stateMutability": "view",
      "type": "function"
    },
    {
      "constant": true,
      "inputs": [],
      "name": "isOwner",
      "outputs": [
        {
          "internalType": "bool",
          "name": "",
          "type": "bool"
        }
      ],
      "payable": false,
      "stateMutability": "view",
      "type": "function"
    },
    {
      "constant": false,
      "inputs": [
        {
          "internalType": "address",
          "name": "tokenOwner",
          "type": "address"
        },
        {
          "internalType": "uint256",
          "name": "plannet",
          "type": "uint256"
        }
      ],
      "name": "mint",
      "outputs": [
        {
          "internalType": "uint256",
          "name": "",
          "type": "uint256"
        }
      ],
      "payable": false,
      "stateMutability": "nonpayable",
      "type": "function"
    },
    {
      "constant": true,
      "inputs": [],
      "name": "name",
      "outputs": [
        {
          "internalType": "string",
          "name": "",
          "type": "string"
        }
      ],
      "payable": false,
      "stateMutability": "view",
      "type": "function"
    },
    {
      "constant": true,
      "inputs": [
        {
          "internalType": "address",
          "name": "",
          "type": "address"
        },
        {
          "internalType": "uint256",
          "name": "",
          "type": "uint256"
        }
      ],
      "name": "numWarriorInClan",
      "outputs": [
        {
          "internalType": "uint256",
          "name": "",
          "type": "uint256"
        }
      ],
      "payable": false,
      "stateMutability": "view",
      "type": "function"
    },
    {
      "constant": true,
      "inputs": [],
      "name": "owner",
      "outputs": [
        {
          "internalType": "address",
          "name": "",
          "type": "address"
        }
      ],
      "payable": false,
      "stateMutability": "view",
      "type": "function"
    },
    {
      "constant": true,
      "inputs": [
        {
          "internalType": "uint256",
          "name": "tokenId",
          "type": "uint256"
        }
      ],
      "name": "ownerOf",
      "outputs": [
        {
          "internalType": "address",
          "name": "",
          "type": "address"
        }
      ],
      "payable": false,
      "stateMutability": "view",
      "type": "function"
    },
    {
      "constant": true,
      "inputs": [
        {
          "internalType": "uint256[]",
          "name": "ids",
          "type": "uint256[]"
        }
      ],
      "name": "ownersOf",
      "outputs": [
        {
          "internalType": "address[]",
          "name": "",
          "type": "address[]"
        }
      ],
      "payable": false,
      "stateMutability": "view",
      "type": "function"
    },
    {
      "constant": false,
      "inputs": [],
      "name": "renounceOwnership",
      "outputs": [],
      "payable": false,
      "stateMutability": "nonpayable",
      "type": "function"
    },
    {
      "constant": true,
      "inputs": [],
      "name": "router",
      "outputs": [
        {
          "internalType": "address",
          "name": "",
          "type": "address"
        }
      ],
      "payable": false,
      "stateMutability": "view",
      "type": "function"
    },
    {
      "constant": false,
      "inputs": [
        {
          "internalType": "address",
          "name": "from",
          "type": "address"
        },
        {
          "internalType": "address",
          "name": "to",
          "type": "address"
        },
        {
          "internalType": "uint256",
          "name": "tokenId",
          "type": "uint256"
        }
      ],
      "name": "safeTransferFrom",
      "outputs": [],
      "payable": false,
      "stateMutability": "nonpayable",
      "type": "function"
    },
    {
      "constant": false,
      "inputs": [
        {
          "internalType": "address",
          "name": "from",
          "type": "address"
        },
        {
          "internalType": "address",
          "name": "to",
          "type": "address"
        },
        {
          "internalType": "uint256",
          "name": "tokenId",
          "type": "uint256"
        },
        {
          "internalType": "bytes",
          "name": "_data",
          "type": "bytes"
        }
      ],
      "name": "safeTransferFrom",
      "outputs": [],
      "payable": false,
      "stateMutability": "nonpayable",
      "type": "function"
    },
    {
      "constant": false,
      "inputs": [
        {
          "internalType": "address",
          "name": "to",
          "type": "address"
        },
        {
          "internalType": "bool",
          "name": "approved",
          "type": "bool"
        }
      ],
      "name": "setApprovalForAll",
      "outputs": [],
      "payable": false,
      "stateMutability": "nonpayable",
      "type": "function"
    },
    {
      "constant": false,
      "inputs": [
        {
          "internalType": "address",
          "name": "_gemFactory",
          "type": "address"
        }
      ],
      "name": "setGemFactory",
      "outputs": [],
      "payable": false,
      "stateMutability": "nonpayable",
      "type": "function"
    },
    {
      "constant": false,
      "inputs": [
        {
          "internalType": "uint256",
          "name": "_maxTribe",
          "type": "uint256"
        }
      ],
      "name": "setMaxTribe",
      "outputs": [],
      "payable": false,
      "stateMutability": "nonpayable",
      "type": "function"
    },
    {
      "constant": false,
      "inputs": [
        {
          "internalType": "address",
          "name": "_router",
          "type": "address"
        }
      ],
      "name": "setRouter",
      "outputs": [],
      "payable": false,
      "stateMutability": "nonpayable",
      "type": "function"
    },
    {
      "constant": false,
      "inputs": [
        {
          "internalType": "address",
          "name": "user",
          "type": "address"
        },
        {
          "internalType": "uint256",
          "name": "plannet",
          "type": "uint256"
        }
      ],
      "name": "startFarming",
      "outputs": [],
      "payable": false,
      "stateMutability": "nonpayable",
      "type": "function"
    },
    {
      "constant": false,
      "inputs": [
        {
          "internalType": "address",
          "name": "user",
          "type": "address"
        },
        {
          "internalType": "uint256",
          "name": "plannet",
          "type": "uint256"
        }
      ],
      "name": "stopFarming",
      "outputs": [],
      "payable": false,
      "stateMutability": "nonpayable",
      "type": "function"
    },
    {
      "constant": true,
      "inputs": [
        {
          "internalType": "bytes4",
          "name": "interfaceId",
          "type": "bytes4"
        }
      ],
      "name": "supportsInterface",
      "outputs": [
        {
          "internalType": "bool",
          "name": "",
          "type": "bool"
        }
      ],
      "payable": false,
      "stateMutability": "view",
      "type": "function"
    },
    {
      "constant": true,
      "inputs": [],
      "name": "symbol",
      "outputs": [
        {
          "internalType": "string",
          "name": "",
          "type": "string"
        }
      ],
      "payable": false,
      "stateMutability": "view",
      "type": "function"
    },
    {
      "constant": true,
      "inputs": [
        {
          "internalType": "uint256",
          "name": "index",
          "type": "uint256"
        }
      ],
      "name": "tokenByIndex",
      "outputs": [
        {
          "internalType": "uint256",
          "name": "",
          "type": "uint256"
        }
      ],
      "payable": false,
      "stateMutability": "view",
      "type": "function"
    },
    {
      "constant": true,
      "inputs": [
        {
          "internalType": "address",
          "name": "owner",
          "type": "address"
        },
        {
          "internalType": "uint256",
          "name": "index",
          "type": "uint256"
        }
      ],
      "name": "tokenOfOwnerByIndex",
      "outputs": [
        {
          "internalType": "uint256",
          "name": "",
          "type": "uint256"
        }
      ],
      "payable": false,
      "stateMutability": "view",
      "type": "function"
    },
    {
      "constant": true,
      "inputs": [
        {
          "internalType": "uint256",
          "name": "tokenId",
          "type": "uint256"
        }
      ],
      "name": "tokenURI",
      "outputs": [
        {
          "internalType": "string",
          "name": "",
          "type": "string"
        }
      ],
      "payable": false,
      "stateMutability": "view",
      "type": "function"
    },
    {
      "constant": true,
      "inputs": [
        {
          "internalType": "address",
          "name": "_owner",
          "type": "address"
        }
      ],
      "name": "tokensOfOwner",
      "outputs": [
        {
          "internalType": "uint256[]",
          "name": "",
          "type": "uint256[]"
        }
      ],
      "payable": false,
      "stateMutability": "view",
      "type": "function"
    },
    {
      "constant": true,
      "inputs": [],
      "name": "totalSupply",
      "outputs": [
        {
          "internalType": "uint256",
          "name": "",
          "type": "uint256"
        }
      ],
      "payable": false,
      "stateMutability": "view",
      "type": "function"
    },
    {
      "constant": false,
      "inputs": [
        {
          "internalType": "address",
          "name": "from",
          "type": "address"
        },
        {
          "internalType": "address",
          "name": "to",
          "type": "address"
        },
        {
          "internalType": "uint256",
          "name": "tokenId",
          "type": "uint256"
        }
      ],
      "name": "transferFrom",
      "outputs": [],
      "payable": false,
      "stateMutability": "nonpayable",
      "type": "function"
    },
    {
      "constant": false,
      "inputs": [
        {
          "internalType": "address",
          "name": "newOwner",
          "type": "address"
        }
      ],
      "name": "transferOwnership",
      "outputs": [],
      "payable": false,
      "stateMutability": "nonpayable",
      "type": "function"
    },
    {
      "constant": false,
      "inputs": [
        {
          "internalType": "uint256",
          "name": "_plannetIdx",
          "type": "uint256"
        },
        {
          "internalType": "bool",
          "name": "_allowed",
          "type": "bool"
        }
      ],
      "name": "updatePlannet",
      "outputs": [],
      "payable": false,
      "stateMutability": "nonpayable",
      "type": "function"
    }
  ],
  "evm": {
    "bytecode": {
      "linkReferences": {},
      "object": "608060405260056013553480156200001657600080fd5b5060405162003fba38038062003fba83398101604081905262000039916200032d565b8181620000566301ffc9a760e01b6001600160e01b03620001cf16565b620000716380ac58cd60e01b6001600160e01b03620001cf16565b6200008c63780e9d6360e01b6001600160e01b03620001cf16565b8151620000a190600c9060208501906200022f565b508051620000b790600d9060208401906200022f565b50620000d3635b5e139f60e01b6001600160e01b03620001cf16565b5060009050620000eb6001600160e01b036200022a16565b601080546001600160a01b0319166001600160a01b038316908117909155604051919250906000907f8be0079c531659141344cd1fd0a4f28419497f9722a3daafe3b4186f6b6457e0908290a350506014602052507f4f26c3876aa9f4b92579780beea1161a61f87ebf1ec6ee865b299e447ecba99c8054600160ff1991821681179092557fb6c61a840592cc84133e4b25bd509abf4659307c57b160799b38490a5aa48f2c805482168317905560026000527fa1930aa930426c54c34daad2b9ada7c5d0ef0c96078a3c5bb79f6fa6602c4a7a8054909116909117905562000479565b6001600160e01b03198082161415620002055760405162461bcd60e51b8152600401620001fc90620003d6565b60405180910390fd5b6001600160e01b0319166000908152602081905260409020805460ff19166001179055565b335b90565b828054600181600116156101000203166002900490600052602060002090601f016020900481019282601f106200027257805160ff1916838001178555620002a2565b82800160010185558215620002a2579182015b82811115620002a257825182559160200191906001019062000285565b50620002b0929150620002b4565b5090565b6200022c91905b80821115620002b05760008155600101620002bb565b600082601f830112620002e357600080fd5b8151620002fa620002f48262000415565b620003ee565b915080825260208301602083018583830111156200031757600080fd5b6200032483828462000446565b50505092915050565b600080604083850312156200034157600080fd5b82516001600160401b038111156200035857600080fd5b6200036685828601620002d1565b92505060208301516001600160401b038111156200038357600080fd5b6200039185828601620002d1565b9150509250929050565b6000620003aa601c836200043d565b7f4552433136353a20696e76616c696420696e7465726661636520696400000000815260200192915050565b60208082528101620003e8816200039b565b92915050565b6040518181016001600160401b03811182821017156200040d57600080fd5b604052919050565b60006001600160401b038211156200042c57600080fd5b506020601f91909101601f19160190565b90815260200190565b60005b838110156200046357818101518382015260200162000449565b8381111562000473576000848401525b50505050565b613b3180620004896000396000f3fe608060405234801561001057600080fd5b506004361061025c5760003560e01c806375a51b4811610145578063b88d4fde116100bd578063d83a4bc91161008c578063e985e9c511610071578063e985e9c5146104f5578063f2fde38b14610508578063f887ea401461051b5761025c565b8063d83a4bc9146104cf578063e6147518146104e25761025c565b8063b88d4fde14610470578063c0d7865514610483578063c87b56dd14610496578063d05dcc6a146104a95761025c565b80638da5cb5b1161011457806395d89b41116100f957806395d89b411461044d578063a22cb46514610455578063a53225c0146104685761025c565b80638da5cb5b1461043d5780638f32d59b146104455761025c565b806375a51b48146103d75780638462151c146103ea578063856dc78e1461040a5780638a820a441461042a5761025c565b806342842e0e116101d85780635ff2f2e8116101a75780636c0360eb1161018c5780636c0360eb146103b457806370a08231146103bc578063715018a6146103cf5761025c565b80635ff2f2e8146103815780636352211e146103a15761025c565b806342842e0e1461033557806342966c68146103485780634ae55d1d1461035b5780634f6ccce71461036e5761025c565b806318160ddd1161022f57806323b872dd1161021457806323b872dd146102fc5780632f745c591461030f57806340c10f19146103225761025c565b806318160ddd146102d45780631ab729ce146102e95761025c565b806301ffc9a71461026157806306fdde031461028a578063081812fc1461029f578063095ea7b3146102bf575b600080fd5b61027461026f366004612b31565b610523565b604051610281919061373f565b60405180910390f35b61029261055e565b604051610281919061374d565b6102b26102ad366004612b6d565b610613565b60405161028191906136ba565b6102d26102cd366004612a8a565b610686565b005b6102dc6107f8565b60405161028191906138ee565b6102dc6102f7366004612a8a565b6107fe565b6102d261030a366004612994565b61081b565b6102dc61031d366004612a8a565b610872565b6102dc610330366004612a8a565b6108fa565b6102d2610343366004612994565b610b1c565b6102d2610356366004612b6d565b610b37565b6102d2610369366004612a8a565b610b84565b6102dc61037c366004612b6d565b610c75565b61039461038f366004612afc565b610cd6565b604051610281919061370c565b6102b26103af366004612b6d565b610d9a565b610292610df6565b6102dc6103ca36600461293c565b610e75565b6102d2610ef2565b6102d26103e5366004612a8a565b610f9f565b6103fd6103f836600461293c565b611093565b604051610281919061372e565b61041d610418366004612aba565b61112a565b604051610281919061371d565b6102d2610438366004612b8b565b61121d565b6102b2611299565b6102746112b5565b6102926112f5565b6102d2610463366004612a5a565b611374565b6102b26114ae565b6102d261047e3660046129e1565b6114ca565b6102d261049136600461293c565b611523565b6102926104a4366004612b6d565b6115a8565b6104bc6104b7366004612b6d565b6116ee565b60405161028197969594939291906138fc565b6102d26104dd366004612b6d565b61173d565b6102d26104f036600461293c565b611780565b61027461050336600461295a565b611805565b6102d261051636600461293c565b611840565b6102b2611887565b7fffffffff00000000000000000000000000000000000000000000000000000000811660009081526020819052604090205460ff165b919050565b600c8054604080516020601f60027fffffffffffffffffffffffffffffffffffffffffffffffffffffffffffffffff6101006001881615020190951694909404938401819004810282018101909252828152606093909290918301828280156106085780601f106105dd57610100808354040283529160200191610608565b820191906000526020600020905b8154815290600101906020018083116105eb57829003601f168201915b505050505090505b90565b600061061e826118a3565b61065d576040517f08c379a00000000000000000000000000000000000000000000000000000000081526004016106549061381e565b60405180910390fd5b5060009081526005602052604090205473ffffffffffffffffffffffffffffffffffffffff1690565b600061069182610d9a565b90508073ffffffffffffffffffffffffffffffffffffffff168373ffffffffffffffffffffffffffffffffffffffff1614156106f9576040517f08c379a00000000000000000000000000000000000000000000000000000000081526004016106549061386e565b8073ffffffffffffffffffffffffffffffffffffffff166107186118cd565b73ffffffffffffffffffffffffffffffffffffffff1614806107415750610741816105036118cd565b610777576040517f08c379a0000000000000000000000000000000000000000000000000000000008152600401610654906137de565b60008281526005602052604080822080547fffffffffffffffffffffffff00000000000000000000000000000000000000001673ffffffffffffffffffffffffffffffffffffffff87811691821790925591518593918516917f8c5be1e5ebec7d5bd14f71427d1e84f3dd0314c0f7b2291e5b200ac8c7c3b92591a4505050565b600a5490565b600160209081526000928352604080842090915290825290205481565b61082c6108266118cd565b826118d1565b610862576040517f08c379a00000000000000000000000000000000000000000000000000000000081526004016106549061388e565b61086d8383836119a4565b505050565b600061087d83610e75565b82106108b5576040517f08c379a00000000000000000000000000000000000000000000000000000000081526004016106549061375e565b73ffffffffffffffffffffffffffffffffffffffff831660009081526008602052604090208054839081106108e657fe5b906000526020600020015490505b92915050565b60115460009073ffffffffffffffffffffffffffffffffffffffff16331461094e576040517f08c379a0000000000000000000000000000000000000000000000000000000008152600401610654906138de565b60008281526014602052604090205460ff16610996576040517f08c379a00000000000000000000000000000000000000000000000000000000081526004016106549061387e565b60006109a06107f8565b90506109ac84826119c3565b73ffffffffffffffffffffffffffffffffffffffff841660009081526001602081815260408084208785529091528220805490910190556401000000004206905060036040518060e001604052808681526020016013548463ffffffff1681610a1157fe5b068152602001603263ffffffff85160660640163ffffffff16815260200160198463ffffffff1681610a3f57fe5b0660320163ffffffff16815260200160328463ffffffff1681610a5e57fe5b0660960163ffffffff16815260200160638463ffffffff1681610a7d57fe5b06603363ffffffff8616060163ffffffff168152602001604c8463ffffffff1681610aa457fe5b06604a63ffffffff8616060163ffffffff16905281546001808201845560009384526020938490208351600790930201918255928201519281019290925560408101516002830155606081015160038301556080810151600483015560a0810151600583015560c00151600690910155509392505050565b61086d838383604051806020016040528060008152506114ca565b610b426108266118cd565b610b78576040517f08c379a0000000000000000000000000000000000000000000000000000000008152600401610654906138ce565b610b81816119e1565b50565b60125473ffffffffffffffffffffffffffffffffffffffff163314610bd5576040517f08c379a0000000000000000000000000000000000000000000000000000000008152600401610654906138be565b60008181526014602052604090205460ff16610c1d576040517f08c379a0000000000000000000000000000000000000000000000000000000008152600401610654906137ce565b73ffffffffffffffffffffffffffffffffffffffff90911660009081526002602090815260408083209383529290522080547fffffffffffffffffffffffffffffffffffffffffffffffffffffffffffffff00169055565b6000610c7f6107f8565b8210610cb7576040517f08c379a00000000000000000000000000000000000000000000000000000000081526004016106549061389e565b600a8281548110610cc457fe5b90600052602060002001549050919050565b6060808251604051908082528060200260200182016040528015610d04578160200160208202803883390190505b50905060005b8351811015610d935760046000858381518110610d2357fe5b6020026020010151815260200190815260200160002060009054906101000a900473ffffffffffffffffffffffffffffffffffffffff16828281518110610d6657fe5b73ffffffffffffffffffffffffffffffffffffffff90921660209283029190910190910152600101610d0a565b5092915050565b60008181526004602052604081205473ffffffffffffffffffffffffffffffffffffffff16806108f4576040517f08c379a0000000000000000000000000000000000000000000000000000000008152600401610654906137fe565b600e8054604080516020601f60027fffffffffffffffffffffffffffffffffffffffffffffffffffffffffffffffff6101006001881615020190951694909404938401819004810282018101909252828152606093909290918301828280156106085780601f106105dd57610100808354040283529160200191610608565b600073ffffffffffffffffffffffffffffffffffffffff8216610ec4576040517f08c379a0000000000000000000000000000000000000000000000000000000008152600401610654906137ee565b73ffffffffffffffffffffffffffffffffffffffff821660009081526006602052604090206108f4906119f3565b610efa6112b5565b610f30576040517f08c379a00000000000000000000000000000000000000000000000000000000081526004016106549061382e565b60105460405160009173ffffffffffffffffffffffffffffffffffffffff16907f8be0079c531659141344cd1fd0a4f28419497f9722a3daafe3b4186f6b6457e0908390a3601080547fffffffffffffffffffffffff0000000000000000000000000000000000000000169055565b60125473ffffffffffffffffffffffffffffffffffffffff163314610ff0576040517f08c379a0000000000000000000000000000000000000000000000000000000008152600401610654906138be565b60008181526014602052604090205460ff16611038576040517f08c379a0000000000000000000000000000000000000000000000000000000008152600401610654906137ce565b73ffffffffffffffffffffffffffffffffffffffff90911660009081526002602090815260408083209383529290522080547fffffffffffffffffffffffffffffffffffffffffffffffffffffffffffffff00166001179055565b606060006110a083610e75565b9050806110bd575050604080516000815260208101909152610559565b6060816040519080825280602002602001820160405280156110e9578160200160208202803883390190505b50905060005b82811015611120576111018582610872565b82828151811061110d57fe5b60209081029190910101526001016110ef565b5091506105599050565b6060808383905060405190808252806020026020018201604052801561116a57816020015b61115761272f565b81526020019060019003908161114f5790505b50905060005b8381101561121557600385858381811061118657fe5b905060200201358154811061119757fe5b90600052602060002090600702016040518060e001604052908160008201548152602001600182015481526020016002820154815260200160038201548152602001600482015481526020016005820154815260200160068201548152505082828151811061120257fe5b6020908102919091010152600101611170565b509392505050565b6112256112b5565b61125b576040517f08c379a00000000000000000000000000000000000000000000000000000000081526004016106549061382e565b60009182526014602052604090912080547fffffffffffffffffffffffffffffffffffffffffffffffffffffffffffffff0016911515919091179055565b60105473ffffffffffffffffffffffffffffffffffffffff1690565b60105460009073ffffffffffffffffffffffffffffffffffffffff166112d96118cd565b73ffffffffffffffffffffffffffffffffffffffff1614905090565b600d8054604080516020601f60027fffffffffffffffffffffffffffffffffffffffffffffffffffffffffffffffff6101006001881615020190951694909404938401819004810282018101909252828152606093909290918301828280156106085780601f106105dd57610100808354040283529160200191610608565b61137c6118cd565b73ffffffffffffffffffffffffffffffffffffffff168273ffffffffffffffffffffffffffffffffffffffff1614156113e1576040517f08c379a0000000000000000000000000000000000000000000000000000000008152600401610654906137ae565b80600760006113ee6118cd565b73ffffffffffffffffffffffffffffffffffffffff90811682526020808301939093526040918201600090812091871680825291909352912080547fffffffffffffffffffffffffffffffffffffffffffffffffffffffffffffff00169215159290921790915561145d6118cd565b73ffffffffffffffffffffffffffffffffffffffff167f17307eab39ab6107e8899845ad3d59bd9653f200f220920489ca2b5937696c31836040516114a2919061373f565b60405180910390a35050565b60125473ffffffffffffffffffffffffffffffffffffffff1681565b6114db6114d56118cd565b836118d1565b611511576040517f08c379a00000000000000000000000000000000000000000000000000000000081526004016106549061388e565b61151d848484846119f7565b50505050565b61152b6112b5565b611561576040517f08c379a00000000000000000000000000000000000000000000000000000000081526004016106549061382e565b601180547fffffffffffffffffffffffff00000000000000000000000000000000000000001673ffffffffffffffffffffffffffffffffffffffff92909216919091179055565b60606115b3826118a3565b6115e9576040517f08c379a00000000000000000000000000000000000000000000000000000000081526004016106549061384e565b6000828152600f602090815260409182902080548351601f60027fffffffffffffffffffffffffffffffffffffffffffffffffffffffffffffffff61010060018616150201909316929092049182018490048402810184019094528084526060939283018282801561169c5780601f106116715761010080835404028352916020019161169c565b820191906000526020600020905b81548152906001019060200180831161167f57829003601f168201915b505050505090508051600014156116c3575050604080516020810190915260008152610559565b600e816040516020016116d79291906136a2565b604051602081830303815290604052915050610559565b600381815481106116fb57fe5b90600052602060002090600702016000915090508060000154908060010154908060020154908060030154908060040154908060050154908060060154905087565b6117456112b5565b61177b576040517f08c379a00000000000000000000000000000000000000000000000000000000081526004016106549061382e565b601355565b6117886112b5565b6117be576040517f08c379a00000000000000000000000000000000000000000000000000000000081526004016106549061382e565b601280547fffffffffffffffffffffffff00000000000000000000000000000000000000001673ffffffffffffffffffffffffffffffffffffffff92909216919091179055565b73ffffffffffffffffffffffffffffffffffffffff918216600090815260076020908152604080832093909416825291909152205460ff1690565b6118486112b5565b61187e576040517f08c379a00000000000000000000000000000000000000000000000000000000081526004016106549061382e565b610b8181611a44565b60115473ffffffffffffffffffffffffffffffffffffffff1681565b60009081526004602052604090205473ffffffffffffffffffffffffffffffffffffffff16151590565b3390565b60006118dc826118a3565b611912576040517f08c379a0000000000000000000000000000000000000000000000000000000008152600401610654906137be565b600061191d83610d9a565b90508073ffffffffffffffffffffffffffffffffffffffff168473ffffffffffffffffffffffffffffffffffffffff16148061198c57508373ffffffffffffffffffffffffffffffffffffffff1661197484610613565b73ffffffffffffffffffffffffffffffffffffffff16145b8061199c575061199c8185611805565b949350505050565b6119af838383611b1f565b6119b98382611df3565b61086d8282611f47565b6119dd828260405180602001604052806000815250611f92565b5050565b610b816119ed82610d9a565b82611fdf565b5490565b611a028484846119a4565b611a0e84848484612045565b61151d576040517f08c379a00000000000000000000000000000000000000000000000000000000081526004016106549061376e565b73ffffffffffffffffffffffffffffffffffffffff8116611a91576040517f08c379a00000000000000000000000000000000000000000000000000000000081526004016106549061377e565b60105460405173ffffffffffffffffffffffffffffffffffffffff8084169216907f8be0079c531659141344cd1fd0a4f28419497f9722a3daafe3b4186f6b6457e090600090a3601080547fffffffffffffffffffffffff00000000000000000000000000000000000000001673ffffffffffffffffffffffffffffffffffffffff92909216919091179055565b8273ffffffffffffffffffffffffffffffffffffffff16611b3f82610d9a565b73ffffffffffffffffffffffffffffffffffffffff1614611b8c576040517f08c379a00000000000000000000000000000000000000000000000000000000081526004016106549061383e565b73ffffffffffffffffffffffffffffffffffffffff8216611bd9576040517f08c379a00000000000000000000000000000000000000000000000000000000081526004016106549061379e565b600060038281548110611be857fe5b6000918252602080832060079092029091015473ffffffffffffffffffffffffffffffffffffffff8716835260028252604080842082855290925291205490915060ff161580611c67575073ffffffffffffffffffffffffffffffffffffffff8416600090815260016020818152604080842085855290915290912054115b611c9d576040517f08c379a00000000000000000000000000000000000000000000000000000000081526004016106549061385e565b611ca682612248565b73ffffffffffffffffffffffffffffffffffffffff84166000908152600660205260409020611cd4906122a8565b73ffffffffffffffffffffffffffffffffffffffff83166000908152600660205260409020611d02906122bf565b600082815260046020908152604080832080547fffffffffffffffffffffffff00000000000000000000000000000000000000001673ffffffffffffffffffffffffffffffffffffffff8881169190911790915587168352600180835281842085855290925290912054611d75916122c8565b73ffffffffffffffffffffffffffffffffffffffff808616600081815260016020818152604080842088855282528084209690965593881680835281855285832087845290945284822080549091019055925185937fddf252ad1be2c89b69c2b068fc378daa952ba7f163c4a11628f55a4df523b3ef91a450505050565b73ffffffffffffffffffffffffffffffffffffffff8216600090815260086020526040812054611e2a90600163ffffffff6122c816565b600083815260096020526040902054909150808214611eec5773ffffffffffffffffffffffffffffffffffffffff84166000908152600860205260408120805484908110611e7457fe5b9060005260206000200154905080600860008773ffffffffffffffffffffffffffffffffffffffff1673ffffffffffffffffffffffffffffffffffffffff1681526020019081526020016000208381548110611ecc57fe5b600091825260208083209091019290925591825260099052604090208190555b73ffffffffffffffffffffffffffffffffffffffff84166000908152600860205260409020805490611f40907fffffffffffffffffffffffffffffffffffffffffffffffffffffffffffffffff830161276c565b5050505050565b73ffffffffffffffffffffffffffffffffffffffff90911660009081526008602081815260408084208054868652600984529185208290559282526001810183559183529091200155565b611f9c8383612311565b611fa96000848484612045565b61086d576040517f08c379a00000000000000000000000000000000000000000000000000000000081526004016106549061376e565b611fe9828261232e565b6000818152600f602052604090205460027fffffffffffffffffffffffffffffffffffffffffffffffffffffffffffffffff6101006001841615020190911604156119dd576000818152600f602052604081206119dd91612790565b60006120668473ffffffffffffffffffffffffffffffffffffffff1661235a565b6120725750600161199c565b6000606073ffffffffffffffffffffffffffffffffffffffff86167f150b7a02000000000000000000000000000000000000000000000000000000006120b66118cd565b8988886040516024016120cc94939291906136c8565b604080517fffffffffffffffffffffffffffffffffffffffffffffffffffffffffffffffe08184030181529181526020820180517bffffffffffffffffffffffffffffffffffffffffffffffffffffffff167fffffffff000000000000000000000000000000000000000000000000000000009094169390931790925290516121559190613696565b6000604051808303816000865af19150503d8060008114612192576040519150601f19603f3d011682016040523d82523d6000602084013e612197565b606091505b5091509150816121e3578051156121b15780518082602001fd5b6040517f08c379a00000000000000000000000000000000000000000000000000000000081526004016106549061376e565b6000818060200190516121f99190810190612b4f565b7fffffffff00000000000000000000000000000000000000000000000000000000167f150b7a020000000000000000000000000000000000000000000000000000000014935061199c92505050565b60008181526005602052604090205473ffffffffffffffffffffffffffffffffffffffff1615610b8157600090815260056020526040902080547fffffffffffffffffffffffff0000000000000000000000000000000000000000169055565b80546122bb90600163ffffffff6122c816565b9055565b80546001019055565b600061230a83836040518060400160405280601e81526020017f536166654d6174683a207375627472616374696f6e206f766572666c6f770000815250612393565b9392505050565b61231b82826123d9565b6123258282611f47565b6119dd81612513565b6123388282612557565b6123428282611df3565b6000818152600960205260408120556119dd81612675565b6000813f7fc5d2460186f7233c927e7db2dcc703c0e500b653ca82273b7bfad8045d85a47081811480159061199c575050151592915050565b600081848411156123d1576040517f08c379a0000000000000000000000000000000000000000000000000000000008152600401610654919061374d565b505050900390565b73ffffffffffffffffffffffffffffffffffffffff8216612426576040517f08c379a00000000000000000000000000000000000000000000000000000000081526004016106549061380e565b61242f816118a3565b15612466576040517f08c379a00000000000000000000000000000000000000000000000000000000081526004016106549061378e565b600081815260046020908152604080832080547fffffffffffffffffffffffff00000000000000000000000000000000000000001673ffffffffffffffffffffffffffffffffffffffff87169081179091558352600690915290206124ca906122bf565b604051819073ffffffffffffffffffffffffffffffffffffffff8416906000907fddf252ad1be2c89b69c2b068fc378daa952ba7f163c4a11628f55a4df523b3ef908290a45050565b600a80546000838152600b60205260408120829055600182018355919091527fc65a7bb8d6351c1cf70c95a316cc6a92839c986682d98bc35f958f4883f9d2a80155565b8173ffffffffffffffffffffffffffffffffffffffff1661257782610d9a565b73ffffffffffffffffffffffffffffffffffffffff16146125c4576040517f08c379a0000000000000000000000000000000000000000000000000000000008152600401610654906138ae565b6125cd81612248565b73ffffffffffffffffffffffffffffffffffffffff821660009081526006602052604090206125fb906122a8565b60008181526004602052604080822080547fffffffffffffffffffffffff00000000000000000000000000000000000000001690555182919073ffffffffffffffffffffffffffffffffffffffff8516907fddf252ad1be2c89b69c2b068fc378daa952ba7f163c4a11628f55a4df523b3ef908390a45050565b600a5460009061268c90600163ffffffff6122c816565b6000838152600b6020526040812054600a80549394509092849081106126ae57fe5b9060005260206000200154905080600a83815481106126c957fe5b6000918252602080832090910192909255828152600b90915260409020829055600a80549061271a907fffffffffffffffffffffffffffffffffffffffffffffffffffffffffffffffff830161276c565b505050600091825250600b6020526040812055565b6040518060e00160405280600081526020016000815260200160008152602001600081526020016000815260200160008152602001600081525090565b81548183558181111561086d5760008381526020902061086d9181019083016127d0565b50805460018160011615610100020316600290046000825580601f106127b65750610b81565b601f016020900490600052602060002090810190610b8191905b61061091905b808211156127ea57600081556001016127d6565b5090565b80356108f481613abf565b60008083601f84011261280b57600080fd5b50813567ffffffffffffffff81111561282357600080fd5b60208301915083602082028301111561283b57600080fd5b9250929050565b600082601f83011261285357600080fd5b81356128666128618261398b565b613964565b9150818183526020840193506020810190508385602084028201111561288b57600080fd5b60005b838110156128b757816128a18882612931565b845250602092830192919091019060010161288e565b5050505092915050565b80356108f481613ad3565b80356108f481613adc565b80516108f481613adc565b600082601f8301126128f357600080fd5b8135612901612861826139ac565b9150808252602083016020830185838301111561291d57600080fd5b612928838284613a5f565b50505092915050565b80356108f481613ae5565b60006020828403121561294e57600080fd5b600061199c84846127ee565b6000806040838503121561296d57600080fd5b600061297985856127ee565b925050602061298a858286016127ee565b9150509250929050565b6000806000606084860312156129a957600080fd5b60006129b586866127ee565b93505060206129c6868287016127ee565b92505060406129d786828701612931565b9150509250925092565b600080600080608085870312156129f757600080fd5b6000612a0387876127ee565b9450506020612a14878288016127ee565b9350506040612a2587828801612931565b925050606085013567ffffffffffffffff811115612a4257600080fd5b612a4e878288016128e2565b91505092959194509250565b60008060408385031215612a6d57600080fd5b6000612a7985856127ee565b925050602061298a858286016128c1565b60008060408385031215612a9d57600080fd5b6000612aa985856127ee565b925050602061298a85828601612931565b60008060208385031215612acd57600080fd5b823567ffffffffffffffff811115612ae457600080fd5b612af0858286016127f9565b92509250509250929050565b600060208284031215612b0e57600080fd5b813567ffffffffffffffff811115612b2557600080fd5b61199c84828501612842565b600060208284031215612b4357600080fd5b600061199c84846128cc565b600060208284031215612b6157600080fd5b600061199c84846128d7565b600060208284031215612b7f57600080fd5b600061199c8484612931565b60008060408385031215612b9e57600080fd5b6000612a798585612931565b6000612bb68383612bde565b505060200190565b6000612bca838361360e565b505060e00190565b6000612bb6838361368d565b612be781613a11565b82525050565b6000612bf882613a04565b612c028185613a08565b9350612c0d836139f2565b8060005b83811015612c3b578151612c258882612baa565b9750612c30836139f2565b925050600101612c11565b509495945050505050565b6000612c5182613a04565b612c5b8185613a08565b9350612c66836139f2565b8060005b83811015612c3b578151612c7e8882612bbe565b9750612c89836139f2565b925050600101612c6a565b6000612c9f82613a04565b612ca98185613a08565b9350612cb4836139f2565b8060005b83811015612c3b578151612ccc8882612bd2565b9750612cd7836139f2565b925050600101612cb8565b612be781613a1c565b6000612cf682613a04565b612d008185613a08565b9350612d10818560208601613a6b565b612d1981613a97565b9093019392505050565b6000612d2e82613a04565b612d388185610559565b9350612d48818560208601613a6b565b9290920192915050565b600081546001811660008114612d6f5760018114612db057612def565b607f6002830416612d808187610559565b7fffffffffffffffffffffffffffffffffffffffffffffffffffffffffffffff0084168152955085019250612def565b60028204612dbe8187610559565b9550612dc9856139f8565b60005b82811015612de857815488820152600190910190602001612dcc565b5050850192505b505092915050565b6000612e04602b83613a08565b7f455243373231456e756d657261626c653a206f776e657220696e646578206f7581527f74206f6620626f756e6473000000000000000000000000000000000000000000602082015260400192915050565b6000612e63603283613a08565b7f4552433732313a207472616e7366657220746f206e6f6e20455243373231526581527f63656976657220696d706c656d656e7465720000000000000000000000000000602082015260400192915050565b6000612ec2602683613a08565b7f4f776e61626c653a206e6577206f776e657220697320746865207a65726f206181527f6464726573730000000000000000000000000000000000000000000000000000602082015260400192915050565b6000612f21601c83613a08565b7f4552433732313a20746f6b656e20616c7265616479206d696e74656400000000815260200192915050565b6000612f5a602483613a08565b7f4552433732313a207472616e7366657220746f20746865207a65726f2061646481527f7265737300000000000000000000000000000000000000000000000000000000602082015260400192915050565b6000612fb9601983613a08565b7f4552433732313a20617070726f766520746f2063616c6c657200000000000000815260200192915050565b6000612ff2602c83613a08565b7f4552433732313a206f70657261746f7220717565727920666f72206e6f6e657881527f697374656e7420746f6b656e0000000000000000000000000000000000000000602082015260400192915050565b6000613051600f83613a08565b7f496e76616c696420506c616e6e65740000000000000000000000000000000000815260200192915050565b600061308a603883613a08565b7f4552433732313a20617070726f76652063616c6c6572206973206e6f74206f7781527f6e6572206e6f7220617070726f76656420666f7220616c6c0000000000000000602082015260400192915050565b60006130e9602a83613a08565b7f4552433732313a2062616c616e636520717565727920666f7220746865207a6581527f726f206164647265737300000000000000000000000000000000000000000000602082015260400192915050565b6000613148602983613a08565b7f4552433732313a206f776e657220717565727920666f72206e6f6e657869737481527f656e7420746f6b656e0000000000000000000000000000000000000000000000602082015260400192915050565b60006131a7602083613a08565b7f4552433732313a206d696e7420746f20746865207a65726f2061646472657373815260200192915050565b60006131e0602c83613a08565b7f4552433732313a20617070726f76656420717565727920666f72206e6f6e657881527f697374656e7420746f6b656e0000000000000000000000000000000000000000602082015260400192915050565b600061323f602083613a08565b7f4f776e61626c653a2063616c6c6572206973206e6f7420746865206f776e6572815260200192915050565b6000613278602983613a08565b7f4552433732313a207472616e73666572206f6620746f6b656e2074686174206981527f73206e6f74206f776e0000000000000000000000000000000000000000000000602082015260400192915050565b60006132d7602f83613a08565b7f4552433732314d657461646174613a2055524920717565727920666f72206e6f81527f6e6578697374656e7420746f6b656e0000000000000000000000000000000000602082015260400192915050565b6000613336603183613a08565b7f596f75206d75737420776974686472617720616c6c204c5020746f6b656e206681527f726f6d204661726d696e67206669727374000000000000000000000000000000602082015260400192915050565b6000613395602183613a08565b7f4552433732313a20617070726f76616c20746f2063757272656e74206f776e6581527f7200000000000000000000000000000000000000000000000000000000000000602082015260400192915050565b60006133f4601583613a08565b7f496e76616c696420706c616e6e65742076616c75650000000000000000000000815260200192915050565b600061342d603183613a08565b7f4552433732313a207472616e736665722063616c6c6572206973206e6f74206f81527f776e6572206e6f7220617070726f766564000000000000000000000000000000602082015260400192915050565b600061348c602c83613a08565b7f455243373231456e756d657261626c653a20676c6f62616c20696e646578206f81527f7574206f6620626f756e64730000000000000000000000000000000000000000602082015260400192915050565b60006134eb602583613a08565b7f4552433732313a206275726e206f6620746f6b656e2074686174206973206e6f81527f74206f776e000000000000000000000000000000000000000000000000000000602082015260400192915050565b600061354a601983613a08565b7f53656e646572206d7573742062652047656d466163746f727900000000000000815260200192915050565b6000613583603083613a08565b7f4552433732314275726e61626c653a2063616c6c6572206973206e6f74206f7781527f6e6572206e6f7220617070726f76656400000000000000000000000000000000602082015260400192915050565b60006135e2601783613a08565b7f446566692057617272696f723a20466f7262696464656e000000000000000000815260200192915050565b805160e083019061361f848261368d565b506020820151613632602085018261368d565b506040820151613645604085018261368d565b506060820151613658606085018261368d565b50608082015161366b608085018261368d565b5060a082015161367e60a085018261368d565b5060c082015161151d60c08501825b612be781610610565b600061230a8284612d23565b60006136ae8285612d52565b915061199c8284612d23565b602081016108f48284612bde565b608081016136d68287612bde565b6136e36020830186612bde565b6136f0604083018561368d565b81810360608301526137028184612ceb565b9695505050505050565b6020808252810161230a8184612bed565b6020808252810161230a8184612c46565b6020808252810161230a8184612c94565b602081016108f48284612ce2565b6020808252810161230a8184612ceb565b602080825281016108f481612df7565b602080825281016108f481612e56565b602080825281016108f481612eb5565b602080825281016108f481612f14565b602080825281016108f481612f4d565b602080825281016108f481612fac565b602080825281016108f481612fe5565b602080825281016108f481613044565b602080825281016108f48161307d565b602080825281016108f4816130dc565b602080825281016108f48161313b565b602080825281016108f48161319a565b602080825281016108f4816131d3565b602080825281016108f481613232565b602080825281016108f48161326b565b602080825281016108f4816132ca565b602080825281016108f481613329565b602080825281016108f481613388565b602080825281016108f4816133e7565b602080825281016108f481613420565b602080825281016108f48161347f565b602080825281016108f4816134de565b602080825281016108f48161353d565b602080825281016108f481613576565b602080825281016108f4816135d5565b602081016108f4828461368d565b60e0810161390a828a61368d565b613917602083018961368d565b613924604083018861368d565b613931606083018761368d565b61393e608083018661368d565b61394b60a083018561368d565b61395860c083018461368d565b98975050505050505050565b60405181810167ffffffffffffffff8111828210171561398357600080fd5b604052919050565b600067ffffffffffffffff8211156139a257600080fd5b5060209081020190565b600067ffffffffffffffff8211156139c357600080fd5b506020601f919091017fffffffffffffffffffffffffffffffffffffffffffffffffffffffffffffffe0160190565b60200190565b60009081526020902090565b5190565b90815260200190565b60006108f482613a46565b151590565b7fffffffff000000000000000000000000000000000000000000000000000000001690565b73ffffffffffffffffffffffffffffffffffffffff1690565b82818337506000910152565b60005b83811015613a86578181015183820152602001613a6e565b8381111561151d5750506000910152565b601f017fffffffffffffffffffffffffffffffffffffffffffffffffffffffffffffffe01690565b613ac881613a11565b8114610b8157600080fd5b613ac881613a1c565b613ac881613a21565b613ac88161061056fea365627a7a723158203f672b93c3ab0cbc54c7a1585458e24c189905c19602fe440ca1cb0727f31fb36c6578706572696d656e74616cf564736f6c63430005100040",
      "opcodes": "PUSH1 0x80 PUSH1 0x40 MSTORE PUSH1 0x5 PUSH1 0x13 SSTORE CALLVALUE DUP1 ISZERO PUSH3 0x16 JUMPI PUSH1 0x0 DUP1 REVERT JUMPDEST POP PUSH1 0x40 MLOAD PUSH3 0x3FBA CODESIZE SUB DUP1 PUSH3 0x3FBA DUP4 CODECOPY DUP2 ADD PUSH1 0x40 DUP2 SWAP1 MSTORE PUSH3 0x39 SWAP2 PUSH3 0x32D JUMP JUMPDEST DUP2 DUP2 PUSH3 0x56 PUSH4 0x1FFC9A7 PUSH1 0xE0 SHL PUSH1 0x1 PUSH1 0x1 PUSH1 0xE0 SHL SUB PUSH3 0x1CF AND JUMP JUMPDEST PUSH3 0x71 PUSH4 0x80AC58CD PUSH1 0xE0 SHL PUSH1 0x1 PUSH1 0x1 PUSH1 0xE0 SHL SUB PUSH3 0x1CF AND JUMP JUMPDEST PUSH3 0x8C PUSH4 0x780E9D63 PUSH1 0xE0 SHL PUSH1 0x1 PUSH1 0x1 PUSH1 0xE0 SHL SUB PUSH3 0x1CF AND JUMP JUMPDEST DUP2 MLOAD PUSH3 0xA1 SWAP1 PUSH1 0xC SWAP1 PUSH1 0x20 DUP6 ADD SWAP1 PUSH3 0x22F JUMP JUMPDEST POP DUP1 MLOAD PUSH3 0xB7 SWAP1 PUSH1 0xD SWAP1 PUSH1 0x20 DUP5 ADD SWAP1 PUSH3 0x22F JUMP JUMPDEST POP PUSH3 0xD3 PUSH4 0x5B5E139F PUSH1 0xE0 SHL PUSH1 0x1 PUSH1 0x1 PUSH1 0xE0 SHL SUB PUSH3 0x1CF AND JUMP JUMPDEST POP PUSH1 0x0 SWAP1 POP PUSH3 0xEB PUSH1 0x1 PUSH1 0x1 PUSH1 0xE0 SHL SUB PUSH3 0x22A AND JUMP JUMPDEST PUSH1 0x10 DUP1 SLOAD PUSH1 0x1 PUSH1 0x1 PUSH1 0xA0 SHL SUB NOT AND PUSH1 0x1 PUSH1 0x1 PUSH1 0xA0 SHL SUB DUP4 AND SWAP1 DUP2 OR SWAP1 SWAP2 SSTORE PUSH1 0x40 MLOAD SWAP2 SWAP3 POP SWAP1 PUSH1 0x0 SWAP1 PUSH32 0x8BE0079C531659141344CD1FD0A4F28419497F9722A3DAAFE3B4186F6B6457E0 SWAP1 DUP3 SWAP1 LOG3 POP POP PUSH1 0x14 PUSH1 0x20 MSTORE POP PUSH32 0x4F26C3876AA9F4B92579780BEEA1161A61F87EBF1EC6EE865B299E447ECBA99C DUP1 SLOAD PUSH1 0x1 PUSH1 0xFF NOT SWAP2 DUP3 AND DUP2 OR SWAP1 SWAP3 SSTORE PUSH32 0xB6C61A840592CC84133E4B25BD509ABF4659307C57B160799B38490A5AA48F2C DUP1 SLOAD DUP3 AND DUP4 OR SWAP1 SSTORE PUSH1 0x2 PUSH1 0x0 MSTORE PUSH32 0xA1930AA930426C54C34DAAD2B9ADA7C5D0EF0C96078A3C5BB79F6FA6602C4A7A DUP1 SLOAD SWAP1 SWAP2 AND SWAP1 SWAP2 OR SWAP1 SSTORE PUSH3 0x479 JUMP JUMPDEST PUSH1 0x1 PUSH1 0x1 PUSH1 0xE0 SHL SUB NOT DUP1 DUP3 AND EQ ISZERO PUSH3 0x205 JUMPI PUSH1 0x40 MLOAD PUSH3 0x461BCD PUSH1 0xE5 SHL DUP2 MSTORE PUSH1 0x4 ADD PUSH3 0x1FC SWAP1 PUSH3 0x3D6 JUMP JUMPDEST PUSH1 0x40 MLOAD DUP1 SWAP2 SUB SWAP1 REVERT JUMPDEST PUSH1 0x1 PUSH1 0x1 PUSH1 0xE0 SHL SUB NOT AND PUSH1 0x0 SWAP1 DUP2 MSTORE PUSH1 0x20 DUP2 SWAP1 MSTORE PUSH1 0x40 SWAP1 KECCAK256 DUP1 SLOAD PUSH1 0xFF NOT AND PUSH1 0x1 OR SWAP1 SSTORE JUMP JUMPDEST CALLER JUMPDEST SWAP1 JUMP JUMPDEST DUP3 DUP1 SLOAD PUSH1 0x1 DUP2 PUSH1 0x1 AND ISZERO PUSH2 0x100 MUL SUB AND PUSH1 0x2 SWAP1 DIV SWAP1 PUSH1 0x0 MSTORE PUSH1 0x20 PUSH1 0x0 KECCAK256 SWAP1 PUSH1 0x1F ADD PUSH1 0x20 SWAP1 DIV DUP2 ADD SWAP3 DUP3 PUSH1 0x1F LT PUSH3 0x272 JUMPI DUP1 MLOAD PUSH1 0xFF NOT AND DUP4 DUP1 ADD OR DUP6 SSTORE PUSH3 0x2A2 JUMP JUMPDEST DUP3 DUP1 ADD PUSH1 0x1 ADD DUP6 SSTORE DUP3 ISZERO PUSH3 0x2A2 JUMPI SWAP2 DUP3 ADD JUMPDEST DUP3 DUP2 GT ISZERO PUSH3 0x2A2 JUMPI DUP3 MLOAD DUP3 SSTORE SWAP2 PUSH1 0x20 ADD SWAP2 SWAP1 PUSH1 0x1 ADD SWAP1 PUSH3 0x285 JUMP JUMPDEST POP PUSH3 0x2B0 SWAP3 SWAP2 POP PUSH3 0x2B4 JUMP JUMPDEST POP SWAP1 JUMP JUMPDEST PUSH3 0x22C SWAP2 SWAP1 JUMPDEST DUP1 DUP3 GT ISZERO PUSH3 0x2B0 JUMPI PUSH1 0x0 DUP2 SSTORE PUSH1 0x1 ADD PUSH3 0x2BB JUMP JUMPDEST PUSH1 0x0 DUP3 PUSH1 0x1F DUP4 ADD SLT PUSH3 0x2E3 JUMPI PUSH1 0x0 DUP1 REVERT JUMPDEST DUP2 MLOAD PUSH3 0x2FA PUSH3 0x2F4 DUP3 PUSH3 0x415 JUMP JUMPDEST PUSH3 0x3EE JUMP JUMPDEST SWAP2 POP DUP1 DUP3 MSTORE PUSH1 0x20 DUP4 ADD PUSH1 0x20 DUP4 ADD DUP6 DUP4 DUP4 ADD GT ISZERO PUSH3 0x317 JUMPI PUSH1 0x0 DUP1 REVERT JUMPDEST PUSH3 0x324 DUP4 DUP3 DUP5 PUSH3 0x446 JUMP JUMPDEST POP POP POP SWAP3 SWAP2 POP POP JUMP JUMPDEST PUSH1 0x0 DUP1 PUSH1 0x40 DUP4 DUP6 SUB SLT ISZERO PUSH3 0x341 JUMPI PUSH1 0x0 DUP1 REVERT JUMPDEST DUP3 MLOAD PUSH1 0x1 PUSH1 0x1 PUSH1 0x40 SHL SUB DUP2 GT ISZERO PUSH3 0x358 JUMPI PUSH1 0x0 DUP1 REVERT JUMPDEST PUSH3 0x366 DUP6 DUP3 DUP7 ADD PUSH3 0x2D1 JUMP JUMPDEST SWAP3 POP POP PUSH1 0x20 DUP4 ADD MLOAD PUSH1 0x1 PUSH1 0x1 PUSH1 0x40 SHL SUB DUP2 GT ISZERO PUSH3 0x383 JUMPI PUSH1 0x0 DUP1 REVERT JUMPDEST PUSH3 0x391 DUP6 DUP3 DUP7 ADD PUSH3 0x2D1 JUMP JUMPDEST SWAP2 POP POP SWAP3 POP SWAP3 SWAP1 POP JUMP JUMPDEST PUSH1 0x0 PUSH3 0x3AA PUSH1 0x1C DUP4 PUSH3 0x43D JUMP JUMPDEST PUSH32 0x4552433136353A20696E76616C696420696E7465726661636520696400000000 DUP2 MSTORE PUSH1 0x20 ADD SWAP3 SWAP2 POP POP JUMP JUMPDEST PUSH1 0x20 DUP1 DUP3 MSTORE DUP2 ADD PUSH3 0x3E8 DUP2 PUSH3 0x39B JUMP JUMPDEST SWAP3 SWAP2 POP POP JUMP JUMPDEST PUSH1 0x40 MLOAD DUP2 DUP2 ADD PUSH1 0x1 PUSH1 0x1 PUSH1 0x40 SHL SUB DUP2 GT DUP3 DUP3 LT OR ISZERO PUSH3 0x40D JUMPI PUSH1 0x0 DUP1 REVERT JUMPDEST PUSH1 0x40 MSTORE SWAP2 SWAP1 POP JUMP JUMPDEST PUSH1 0x0 PUSH1 0x1 PUSH1 0x1 PUSH1 0x40 SHL SUB DUP3 GT ISZERO PUSH3 0x42C JUMPI PUSH1 0x0 DUP1 REVERT JUMPDEST POP PUSH1 0x20 PUSH1 0x1F SWAP2 SWAP1 SWAP2 ADD PUSH1 0x1F NOT AND ADD SWAP1 JUMP JUMPDEST SWAP1 DUP2 MSTORE PUSH1 0x20 ADD SWAP1 JUMP JUMPDEST PUSH1 0x0 JUMPDEST DUP4 DUP2 LT ISZERO PUSH3 0x463 JUMPI DUP2 DUP2 ADD MLOAD DUP4 DUP3 ADD MSTORE PUSH1 0x20 ADD PUSH3 0x449 JUMP JUMPDEST DUP4 DUP2 GT ISZERO PUSH3 0x473 JUMPI PUSH1 0x0 DUP5 DUP5 ADD MSTORE JUMPDEST POP POP POP POP JUMP JUMPDEST PUSH2 0x3B31 DUP1 PUSH3 0x489 PUSH1 0x0 CODECOPY PUSH1 0x0 RETURN INVALID PUSH1 0x80 PUSH1 0x40 MSTORE CALLVALUE DUP1 ISZERO PUSH2 0x10 JUMPI PUSH1 0x0 DUP1 REVERT JUMPDEST POP PUSH1 0x4 CALLDATASIZE LT PUSH2 0x25C JUMPI PUSH1 0x0 CALLDATALOAD PUSH1 0xE0 SHR DUP1 PUSH4 0x75A51B48 GT PUSH2 0x145 JUMPI DUP1 PUSH4 0xB88D4FDE GT PUSH2 0xBD JUMPI DUP1 PUSH4 0xD83A4BC9 GT PUSH2 0x8C JUMPI DUP1 PUSH4 0xE985E9C5 GT PUSH2 0x71 JUMPI DUP1 PUSH4 0xE985E9C5 EQ PUSH2 0x4F5 JUMPI DUP1 PUSH4 0xF2FDE38B EQ PUSH2 0x508 JUMPI DUP1 PUSH4 0xF887EA40 EQ PUSH2 0x51B JUMPI PUSH2 0x25C JUMP JUMPDEST DUP1 PUSH4 0xD83A4BC9 EQ PUSH2 0x4CF JUMPI DUP1 PUSH4 0xE6147518 EQ PUSH2 0x4E2 JUMPI PUSH2 0x25C JUMP JUMPDEST DUP1 PUSH4 0xB88D4FDE EQ PUSH2 0x470 JUMPI DUP1 PUSH4 0xC0D78655 EQ PUSH2 0x483 JUMPI DUP1 PUSH4 0xC87B56DD EQ PUSH2 0x496 JUMPI DUP1 PUSH4 0xD05DCC6A EQ PUSH2 0x4A9 JUMPI PUSH2 0x25C JUMP JUMPDEST DUP1 PUSH4 0x8DA5CB5B GT PUSH2 0x114 JUMPI DUP1 PUSH4 0x95D89B41 GT PUSH2 0xF9 JUMPI DUP1 PUSH4 0x95D89B41 EQ PUSH2 0x44D JUMPI DUP1 PUSH4 0xA22CB465 EQ PUSH2 0x455 JUMPI DUP1 PUSH4 0xA53225C0 EQ PUSH2 0x468 JUMPI PUSH2 0x25C JUMP JUMPDEST DUP1 PUSH4 0x8DA5CB5B EQ PUSH2 0x43D JUMPI DUP1 PUSH4 0x8F32D59B EQ PUSH2 0x445 JUMPI PUSH2 0x25C JUMP JUMPDEST DUP1 PUSH4 0x75A51B48 EQ PUSH2 0x3D7 JUMPI DUP1 PUSH4 0x8462151C EQ PUSH2 0x3EA JUMPI DUP1 PUSH4 0x856DC78E EQ PUSH2 0x40A JUMPI DUP1 PUSH4 0x8A820A44 EQ PUSH2 0x42A JUMPI PUSH2 0x25C JUMP JUMPDEST DUP1 PUSH4 0x42842E0E GT PUSH2 0x1D8 JUMPI DUP1 PUSH4 0x5FF2F2E8 GT PUSH2 0x1A7 JUMPI DUP1 PUSH4 0x6C0360EB GT PUSH2 0x18C JUMPI DUP1 PUSH4 0x6C0360EB EQ PUSH2 0x3B4 JUMPI DUP1 PUSH4 0x70A08231 EQ PUSH2 0x3BC JUMPI DUP1 PUSH4 0x715018A6 EQ PUSH2 0x3CF JUMPI PUSH2 0x25C JUMP JUMPDEST DUP1 PUSH4 0x5FF2F2E8 EQ PUSH2 0x381 JUMPI DUP1 PUSH4 0x6352211E EQ PUSH2 0x3A1 JUMPI PUSH2 0x25C JUMP JUMPDEST DUP1 PUSH4 0x42842E0E EQ PUSH2 0x335 JUMPI DUP1 PUSH4 0x42966C68 EQ PUSH2 0x348 JUMPI DUP1 PUSH4 0x4AE55D1D EQ PUSH2 0x35B JUMPI DUP1 PUSH4 0x4F6CCCE7 EQ PUSH2 0x36E JUMPI PUSH2 0x25C JUMP JUMPDEST DUP1 PUSH4 0x18160DDD GT PUSH2 0x22F JUMPI DUP1 PUSH4 0x23B872DD GT PUSH2 0x214 JUMPI DUP1 PUSH4 0x23B872DD EQ PUSH2 0x2FC JUMPI DUP1 PUSH4 0x2F745C59 EQ PUSH2 0x30F JUMPI DUP1 PUSH4 0x40C10F19 EQ PUSH2 0x322 JUMPI PUSH2 0x25C JUMP JUMPDEST DUP1 PUSH4 0x18160DDD EQ PUSH2 0x2D4 JUMPI DUP1 PUSH4 0x1AB729CE EQ PUSH2 0x2E9 JUMPI PUSH2 0x25C JUMP JUMPDEST DUP1 PUSH4 0x1FFC9A7 EQ PUSH2 0x261 JUMPI DUP1 PUSH4 0x6FDDE03 EQ PUSH2 0x28A JUMPI DUP1 PUSH4 0x81812FC EQ PUSH2 0x29F JUMPI DUP1 PUSH4 0x95EA7B3 EQ PUSH2 0x2BF JUMPI JUMPDEST PUSH1 0x0 DUP1 REVERT JUMPDEST PUSH2 0x274 PUSH2 0x26F CALLDATASIZE PUSH1 0x4 PUSH2 0x2B31 JUMP JUMPDEST PUSH2 0x523 JUMP JUMPDEST PUSH1 0x40 MLOAD PUSH2 0x281 SWAP2 SWAP1 PUSH2 0x373F JUMP JUMPDEST PUSH1 0x40 MLOAD DUP1 SWAP2 SUB SWAP1 RETURN JUMPDEST PUSH2 0x292 PUSH2 0x55E JUMP JUMPDEST PUSH1 0x40 MLOAD PUSH2 0x281 SWAP2 SWAP1 PUSH2 0x374D JUMP JUMPDEST PUSH2 0x2B2 PUSH2 0x2AD CALLDATASIZE PUSH1 0x4 PUSH2 0x2B6D JUMP JUMPDEST PUSH2 0x613 JUMP JUMPDEST PUSH1 0x40 MLOAD PUSH2 0x281 SWAP2 SWAP1 PUSH2 0x36BA JUMP JUMPDEST PUSH2 0x2D2 PUSH2 0x2CD CALLDATASIZE PUSH1 0x4 PUSH2 0x2A8A JUMP JUMPDEST PUSH2 0x686 JUMP JUMPDEST STOP JUMPDEST PUSH2 0x2DC PUSH2 0x7F8 JUMP JUMPDEST PUSH1 0x40 MLOAD PUSH2 0x281 SWAP2 SWAP1 PUSH2 0x38EE JUMP JUMPDEST PUSH2 0x2DC PUSH2 0x2F7 CALLDATASIZE PUSH1 0x4 PUSH2 0x2A8A JUMP JUMPDEST PUSH2 0x7FE JUMP JUMPDEST PUSH2 0x2D2 PUSH2 0x30A CALLDATASIZE PUSH1 0x4 PUSH2 0x2994 JUMP JUMPDEST PUSH2 0x81B JUMP JUMPDEST PUSH2 0x2DC PUSH2 0x31D CALLDATASIZE PUSH1 0x4 PUSH2 0x2A8A JUMP JUMPDEST PUSH2 0x872 JUMP JUMPDEST PUSH2 0x2DC PUSH2 0x330 CALLDATASIZE PUSH1 0x4 PUSH2 0x2A8A JUMP JUMPDEST PUSH2 0x8FA JUMP JUMPDEST PUSH2 0x2D2 PUSH2 0x343 CALLDATASIZE PUSH1 0x4 PUSH2 0x2994 JUMP JUMPDEST PUSH2 0xB1C JUMP JUMPDEST PUSH2 0x2D2 PUSH2 0x356 CALLDATASIZE PUSH1 0x4 PUSH2 0x2B6D JUMP JUMPDEST PUSH2 0xB37 JUMP JUMPDEST PUSH2 0x2D2 PUSH2 0x369 CALLDATASIZE PUSH1 0x4 PUSH2 0x2A8A JUMP JUMPDEST PUSH2 0xB84 JUMP JUMPDEST PUSH2 0x2DC PUSH2 0x37C CALLDATASIZE PUSH1 0x4 PUSH2 0x2B6D JUMP JUMPDEST PUSH2 0xC75 JUMP JUMPDEST PUSH2 0x394 PUSH2 0x38F CALLDATASIZE PUSH1 0x4 PUSH2 0x2AFC JUMP JUMPDEST PUSH2 0xCD6 JUMP JUMPDEST PUSH1 0x40 MLOAD PUSH2 0x281 SWAP2 SWAP1 PUSH2 0x370C JUMP JUMPDEST PUSH2 0x2B2 PUSH2 0x3AF CALLDATASIZE PUSH1 0x4 PUSH2 0x2B6D JUMP JUMPDEST PUSH2 0xD9A JUMP JUMPDEST PUSH2 0x292 PUSH2 0xDF6 JUMP JUMPDEST PUSH2 0x2DC PUSH2 0x3CA CALLDATASIZE PUSH1 0x4 PUSH2 0x293C JUMP JUMPDEST PUSH2 0xE75 JUMP JUMPDEST PUSH2 0x2D2 PUSH2 0xEF2 JUMP JUMPDEST PUSH2 0x2D2 PUSH2 0x3E5 CALLDATASIZE PUSH1 0x4 PUSH2 0x2A8A JUMP JUMPDEST PUSH2 0xF9F JUMP JUMPDEST PUSH2 0x3FD PUSH2 0x3F8 CALLDATASIZE PUSH1 0x4 PUSH2 0x293C JUMP JUMPDEST PUSH2 0x1093 JUMP JUMPDEST PUSH1 0x40 MLOAD PUSH2 0x281 SWAP2 SWAP1 PUSH2 0x372E JUMP JUMPDEST PUSH2 0x41D PUSH2 0x418 CALLDATASIZE PUSH1 0x4 PUSH2 0x2ABA JUMP JUMPDEST PUSH2 0x112A JUMP JUMPDEST PUSH1 0x40 MLOAD PUSH2 0x281 SWAP2 SWAP1 PUSH2 0x371D JUMP JUMPDEST PUSH2 0x2D2 PUSH2 0x438 CALLDATASIZE PUSH1 0x4 PUSH2 0x2B8B JUMP JUMPDEST PUSH2 0x121D JUMP JUMPDEST PUSH2 0x2B2 PUSH2 0x1299 JUMP JUMPDEST PUSH2 0x274 PUSH2 0x12B5 JUMP JUMPDEST PUSH2 0x292 PUSH2 0x12F5 JUMP JUMPDEST PUSH2 0x2D2 PUSH2 0x463 CALLDATASIZE PUSH1 0x4 PUSH2 0x2A5A JUMP JUMPDEST PUSH2 0x1374 JUMP JUMPDEST PUSH2 0x2B2 PUSH2 0x14AE JUMP JUMPDEST PUSH2 0x2D2 PUSH2 0x47E CALLDATASIZE PUSH1 0x4 PUSH2 0x29E1 JUMP JUMPDEST PUSH2 0x14CA JUMP JUMPDEST PUSH2 0x2D2 PUSH2 0x491 CALLDATASIZE PUSH1 0x4 PUSH2 0x293C JUMP JUMPDEST PUSH2 0x1523 JUMP JUMPDEST PUSH2 0x292 PUSH2 0x4A4 CALLDATASIZE PUSH1 0x4 PUSH2 0x2B6D JUMP JUMPDEST PUSH2 0x15A8 JUMP JUMPDEST PUSH2 0x4BC PUSH2 0x4B7 CALLDATASIZE PUSH1 0x4 PUSH2 0x2B6D JUMP JUMPDEST PUSH2 0x16EE JUMP JUMPDEST PUSH1 0x40 MLOAD PUSH2 0x281 SWAP8 SWAP7 SWAP6 SWAP5 SWAP4 SWAP3 SWAP2 SWAP1 PUSH2 0x38FC JUMP JUMPDEST PUSH2 0x2D2 PUSH2 0x4DD CALLDATASIZE PUSH1 0x4 PUSH2 0x2B6D JUMP JUMPDEST PUSH2 0x173D JUMP JUMPDEST PUSH2 0x2D2 PUSH2 0x4F0 CALLDATASIZE PUSH1 0x4 PUSH2 0x293C JUMP JUMPDEST PUSH2 0x1780 JUMP JUMPDEST PUSH2 0x274 PUSH2 0x503 CALLDATASIZE PUSH1 0x4 PUSH2 0x295A JUMP JUMPDEST PUSH2 0x1805 JUMP JUMPDEST PUSH2 0x2D2 PUSH2 0x516 CALLDATASIZE PUSH1 0x4 PUSH2 0x293C JUMP JUMPDEST PUSH2 0x1840 JUMP JUMPDEST PUSH2 0x2B2 PUSH2 0x1887 JUMP JUMPDEST PUSH32 0xFFFFFFFF00000000000000000000000000000000000000000000000000000000 DUP2 AND PUSH1 0x0 SWAP1 DUP2 MSTORE PUSH1 0x20 DUP2 SWAP1 MSTORE PUSH1 0x40 SWAP1 KECCAK256 SLOAD PUSH1 0xFF AND JUMPDEST SWAP2 SWAP1 POP JUMP JUMPDEST PUSH1 0xC DUP1 SLOAD PUSH1 0x40 DUP1 MLOAD PUSH1 0x20 PUSH1 0x1F PUSH1 0x2 PUSH32 0xFFFFFFFFFFFFFFFFFFFFFFFFFFFFFFFFFFFFFFFFFFFFFFFFFFFFFFFFFFFFFFFF PUSH2 0x100 PUSH1 0x1 DUP9 AND ISZERO MUL ADD SWAP1 SWAP6 AND SWAP5 SWAP1 SWAP5 DIV SWAP4 DUP5 ADD DUP2 SWAP1 DIV DUP2 MUL DUP3 ADD DUP2 ADD SWAP1 SWAP3 MSTORE DUP3 DUP2 MSTORE PUSH1 0x60 SWAP4 SWAP1 SWAP3 SWAP1 SWAP2 DUP4 ADD DUP3 DUP3 DUP1 ISZERO PUSH2 0x608 JUMPI DUP1 PUSH1 0x1F LT PUSH2 0x5DD JUMPI PUSH2 0x100 DUP1 DUP4 SLOAD DIV MUL DUP4 MSTORE SWAP2 PUSH1 0x20 ADD SWAP2 PUSH2 0x608 JUMP JUMPDEST DUP3 ADD SWAP2 SWAP1 PUSH1 0x0 MSTORE PUSH1 0x20 PUSH1 0x0 KECCAK256 SWAP1 JUMPDEST DUP2 SLOAD DUP2 MSTORE SWAP1 PUSH1 0x1 ADD SWAP1 PUSH1 0x20 ADD DUP1 DUP4 GT PUSH2 0x5EB JUMPI DUP3 SWAP1 SUB PUSH1 0x1F AND DUP3 ADD SWAP2 JUMPDEST POP POP POP POP POP SWAP1 POP JUMPDEST SWAP1 JUMP JUMPDEST PUSH1 0x0 PUSH2 0x61E DUP3 PUSH2 0x18A3 JUMP JUMPDEST PUSH2 0x65D JUMPI PUSH1 0x40 MLOAD PUSH32 0x8C379A000000000000000000000000000000000000000000000000000000000 DUP2 MSTORE PUSH1 0x4 ADD PUSH2 0x654 SWAP1 PUSH2 0x381E JUMP JUMPDEST PUSH1 0x40 MLOAD DUP1 SWAP2 SUB SWAP1 REVERT JUMPDEST POP PUSH1 0x0 SWAP1 DUP2 MSTORE PUSH1 0x5 PUSH1 0x20 MSTORE PUSH1 0x40 SWAP1 KECCAK256 SLOAD PUSH20 0xFFFFFFFFFFFFFFFFFFFFFFFFFFFFFFFFFFFFFFFF AND SWAP1 JUMP JUMPDEST PUSH1 0x0 PUSH2 0x691 DUP3 PUSH2 0xD9A JUMP JUMPDEST SWAP1 POP DUP1 PUSH20 0xFFFFFFFFFFFFFFFFFFFFFFFFFFFFFFFFFFFFFFFF AND DUP4 PUSH20 0xFFFFFFFFFFFFFFFFFFFFFFFFFFFFFFFFFFFFFFFF AND EQ ISZERO PUSH2 0x6F9 JUMPI PUSH1 0x40 MLOAD PUSH32 0x8C379A000000000000000000000000000000000000000000000000000000000 DUP2 MSTORE PUSH1 0x4 ADD PUSH2 0x654 SWAP1 PUSH2 0x386E JUMP JUMPDEST DUP1 PUSH20 0xFFFFFFFFFFFFFFFFFFFFFFFFFFFFFFFFFFFFFFFF AND PUSH2 0x718 PUSH2 0x18CD JUMP JUMPDEST PUSH20 0xFFFFFFFFFFFFFFFFFFFFFFFFFFFFFFFFFFFFFFFF AND EQ DUP1 PUSH2 0x741 JUMPI POP PUSH2 0x741 DUP2 PUSH2 0x503 PUSH2 0x18CD JUMP JUMPDEST PUSH2 0x777 JUMPI PUSH1 0x40 MLOAD PUSH32 0x8C379A000000000000000000000000000000000000000000000000000000000 DUP2 MSTORE PUSH1 0x4 ADD PUSH2 0x654 SWAP1 PUSH2 0x37DE JUMP JUMPDEST PUSH1 0x0 DUP3 DUP2 MSTORE PUSH1 0x5 PUSH1 0x20 MSTORE PUSH1 0x40 DUP1 DUP3 KECCAK256 DUP1 SLOAD PUSH32 0xFFFFFFFFFFFFFFFFFFFFFFFF0000000000000000000000000000000000000000 AND PUSH20 0xFFFFFFFFFFFFFFFFFFFFFFFFFFFFFFFFFFFFFFFF DUP8 DUP2 AND SWAP2 DUP3 OR SWAP1 SWAP3 SSTORE SWAP2 MLOAD DUP6 SWAP4 SWAP2 DUP6 AND SWAP2 PUSH32 0x8C5BE1E5EBEC7D5BD14F71427D1E84F3DD0314C0F7B2291E5B200AC8C7C3B925 SWAP2 LOG4 POP POP POP JUMP JUMPDEST PUSH1 0xA SLOAD SWAP1 JUMP JUMPDEST PUSH1 0x1 PUSH1 0x20 SWAP1 DUP2 MSTORE PUSH1 0x0 SWAP3 DUP4 MSTORE PUSH1 0x40 DUP1 DUP5 KECCAK256 SWAP1 SWAP2 MSTORE SWAP1 DUP3 MSTORE SWAP1 KECCAK256 SLOAD DUP2 JUMP JUMPDEST PUSH2 0x82C PUSH2 0x826 PUSH2 0x18CD JUMP JUMPDEST DUP3 PUSH2 0x18D1 JUMP JUMPDEST PUSH2 0x862 JUMPI PUSH1 0x40 MLOAD PUSH32 0x8C379A000000000000000000000000000000000000000000000000000000000 DUP2 MSTORE PUSH1 0x4 ADD PUSH2 0x654 SWAP1 PUSH2 0x388E JUMP JUMPDEST PUSH2 0x86D DUP4 DUP4 DUP4 PUSH2 0x19A4 JUMP JUMPDEST POP POP POP JUMP JUMPDEST PUSH1 0x0 PUSH2 0x87D DUP4 PUSH2 0xE75 JUMP JUMPDEST DUP3 LT PUSH2 0x8B5 JUMPI PUSH1 0x40 MLOAD PUSH32 0x8C379A000000000000000000000000000000000000000000000000000000000 DUP2 MSTORE PUSH1 0x4 ADD PUSH2 0x654 SWAP1 PUSH2 0x375E JUMP JUMPDEST PUSH20 0xFFFFFFFFFFFFFFFFFFFFFFFFFFFFFFFFFFFFFFFF DUP4 AND PUSH1 0x0 SWAP1 DUP2 MSTORE PUSH1 0x8 PUSH1 0x20 MSTORE PUSH1 0x40 SWAP1 KECCAK256 DUP1 SLOAD DUP4 SWAP1 DUP2 LT PUSH2 0x8E6 JUMPI INVALID JUMPDEST SWAP1 PUSH1 0x0 MSTORE PUSH1 0x20 PUSH1 0x0 KECCAK256 ADD SLOAD SWAP1 POP JUMPDEST SWAP3 SWAP2 POP POP JUMP JUMPDEST PUSH1 0x11 SLOAD PUSH1 0x0 SWAP1 PUSH20 0xFFFFFFFFFFFFFFFFFFFFFFFFFFFFFFFFFFFFFFFF AND CALLER EQ PUSH2 0x94E JUMPI PUSH1 0x40 MLOAD PUSH32 0x8C379A000000000000000000000000000000000000000000000000000000000 DUP2 MSTORE PUSH1 0x4 ADD PUSH2 0x654 SWAP1 PUSH2 0x38DE JUMP JUMPDEST PUSH1 0x0 DUP3 DUP2 MSTORE PUSH1 0x14 PUSH1 0x20 MSTORE PUSH1 0x40 SWAP1 KECCAK256 SLOAD PUSH1 0xFF AND PUSH2 0x996 JUMPI PUSH1 0x40 MLOAD PUSH32 0x8C379A000000000000000000000000000000000000000000000000000000000 DUP2 MSTORE PUSH1 0x4 ADD PUSH2 0x654 SWAP1 PUSH2 0x387E JUMP JUMPDEST PUSH1 0x0 PUSH2 0x9A0 PUSH2 0x7F8 JUMP JUMPDEST SWAP1 POP PUSH2 0x9AC DUP5 DUP3 PUSH2 0x19C3 JUMP JUMPDEST PUSH20 0xFFFFFFFFFFFFFFFFFFFFFFFFFFFFFFFFFFFFFFFF DUP5 AND PUSH1 0x0 SWAP1 DUP2 MSTORE PUSH1 0x1 PUSH1 0x20 DUP2 DUP2 MSTORE PUSH1 0x40 DUP1 DUP5 KECCAK256 DUP8 DUP6 MSTORE SWAP1 SWAP2 MSTORE DUP3 KECCAK256 DUP1 SLOAD SWAP1 SWAP2 ADD SWAP1 SSTORE PUSH5 0x100000000 TIMESTAMP MOD SWAP1 POP PUSH1 0x3 PUSH1 0x40 MLOAD DUP1 PUSH1 0xE0 ADD PUSH1 0x40 MSTORE DUP1 DUP7 DUP2 MSTORE PUSH1 0x20 ADD PUSH1 0x13 SLOAD DUP5 PUSH4 0xFFFFFFFF AND DUP2 PUSH2 0xA11 JUMPI INVALID JUMPDEST MOD DUP2 MSTORE PUSH1 0x20 ADD PUSH1 0x32 PUSH4 0xFFFFFFFF DUP6 AND MOD PUSH1 0x64 ADD PUSH4 0xFFFFFFFF AND DUP2 MSTORE PUSH1 0x20 ADD PUSH1 0x19 DUP5 PUSH4 0xFFFFFFFF AND DUP2 PUSH2 0xA3F JUMPI INVALID JUMPDEST MOD PUSH1 0x32 ADD PUSH4 0xFFFFFFFF AND DUP2 MSTORE PUSH1 0x20 ADD PUSH1 0x32 DUP5 PUSH4 0xFFFFFFFF AND DUP2 PUSH2 0xA5E JUMPI INVALID JUMPDEST MOD PUSH1 0x96 ADD PUSH4 0xFFFFFFFF AND DUP2 MSTORE PUSH1 0x20 ADD PUSH1 0x63 DUP5 PUSH4 0xFFFFFFFF AND DUP2 PUSH2 0xA7D JUMPI INVALID JUMPDEST MOD PUSH1 0x33 PUSH4 0xFFFFFFFF DUP7 AND MOD ADD PUSH4 0xFFFFFFFF AND DUP2 MSTORE PUSH1 0x20 ADD PUSH1 0x4C DUP5 PUSH4 0xFFFFFFFF AND DUP2 PUSH2 0xAA4 JUMPI INVALID JUMPDEST MOD PUSH1 0x4A PUSH4 0xFFFFFFFF DUP7 AND MOD ADD PUSH4 0xFFFFFFFF AND SWAP1 MSTORE DUP2 SLOAD PUSH1 0x1 DUP1 DUP3 ADD DUP5 SSTORE PUSH1 0x0 SWAP4 DUP5 MSTORE PUSH1 0x20 SWAP4 DUP5 SWAP1 KECCAK256 DUP4 MLOAD PUSH1 0x7 SWAP1 SWAP4 MUL ADD SWAP2 DUP3 SSTORE SWAP3 DUP3 ADD MLOAD SWAP3 DUP2 ADD SWAP3 SWAP1 SWAP3 SSTORE PUSH1 0x40 DUP2 ADD MLOAD PUSH1 0x2 DUP4 ADD SSTORE PUSH1 0x60 DUP2 ADD MLOAD PUSH1 0x3 DUP4 ADD SSTORE PUSH1 0x80 DUP2 ADD MLOAD PUSH1 0x4 DUP4 ADD SSTORE PUSH1 0xA0 DUP2 ADD MLOAD PUSH1 0x5 DUP4 ADD SSTORE PUSH1 0xC0 ADD MLOAD PUSH1 0x6 SWAP1 SWAP2 ADD SSTORE POP SWAP4 SWAP3 POP POP POP JUMP JUMPDEST PUSH2 0x86D DUP4 DUP4 DUP4 PUSH1 0x40 MLOAD DUP1 PUSH1 0x20 ADD PUSH1 0x40 MSTORE DUP1 PUSH1 0x0 DUP2 MSTORE POP PUSH2 0x14CA JUMP JUMPDEST PUSH2 0xB42 PUSH2 0x826 PUSH2 0x18CD JUMP JUMPDEST PUSH2 0xB78 JUMPI PUSH1 0x40 MLOAD PUSH32 0x8C379A000000000000000000000000000000000000000000000000000000000 DUP2 MSTORE PUSH1 0x4 ADD PUSH2 0x654 SWAP1 PUSH2 0x38CE JUMP JUMPDEST PUSH2 0xB81 DUP2 PUSH2 0x19E1 JUMP JUMPDEST POP JUMP JUMPDEST PUSH1 0x12 SLOAD PUSH20 0xFFFFFFFFFFFFFFFFFFFFFFFFFFFFFFFFFFFFFFFF AND CALLER EQ PUSH2 0xBD5 JUMPI PUSH1 0x40 MLOAD PUSH32 0x8C379A000000000000000000000000000000000000000000000000000000000 DUP2 MSTORE PUSH1 0x4 ADD PUSH2 0x654 SWAP1 PUSH2 0x38BE JUMP JUMPDEST PUSH1 0x0 DUP2 DUP2 MSTORE PUSH1 0x14 PUSH1 0x20 MSTORE PUSH1 0x40 SWAP1 KECCAK256 SLOAD PUSH1 0xFF AND PUSH2 0xC1D JUMPI PUSH1 0x40 MLOAD PUSH32 0x8C379A000000000000000000000000000000000000000000000000000000000 DUP2 MSTORE PUSH1 0x4 ADD PUSH2 0x654 SWAP1 PUSH2 0x37CE JUMP JUMPDEST PUSH20 0xFFFFFFFFFFFFFFFFFFFFFFFFFFFFFFFFFFFFFFFF SWAP1 SWAP2 AND PUSH1 0x0 SWAP1 DUP2 MSTORE PUSH1 0x2 PUSH1 0x20 SWAP1 DUP2 MSTORE PUSH1 0x40 DUP1 DUP4 KECCAK256 SWAP4 DUP4 MSTORE SWAP3 SWAP1 MSTORE KECCAK256 DUP1 SLOAD PUSH32 0xFFFFFFFFFFFFFFFFFFFFFFFFFFFFFFFFFFFFFFFFFFFFFFFFFFFFFFFFFFFFFF00 AND SWAP1 SSTORE JUMP JUMPDEST PUSH1 0x0 PUSH2 0xC7F PUSH2 0x7F8 JUMP JUMPDEST DUP3 LT PUSH2 0xCB7 JUMPI PUSH1 0x40 MLOAD PUSH32 0x8C379A000000000000000000000000000000000000000000000000000000000 DUP2 MSTORE PUSH1 0x4 ADD PUSH2 0x654 SWAP1 PUSH2 0x389E JUMP JUMPDEST PUSH1 0xA DUP3 DUP2 SLOAD DUP2 LT PUSH2 0xCC4 JUMPI INVALID JUMPDEST SWAP1 PUSH1 0x0 MSTORE PUSH1 0x20 PUSH1 0x0 KECCAK256 ADD SLOAD SWAP1 POP SWAP2 SWAP1 POP JUMP JUMPDEST PUSH1 0x60 DUP1 DUP3 MLOAD PUSH1 0x40 MLOAD SWAP1 DUP1 DUP3 MSTORE DUP1 PUSH1 0x20 MUL PUSH1 0x20 ADD DUP3 ADD PUSH1 0x40 MSTORE DUP1 ISZERO PUSH2 0xD04 JUMPI DUP2 PUSH1 0x20 ADD PUSH1 0x20 DUP3 MUL DUP1 CODESIZE DUP4 CODECOPY ADD SWAP1 POP JUMPDEST POP SWAP1 POP PUSH1 0x0 JUMPDEST DUP4 MLOAD DUP2 LT ISZERO PUSH2 0xD93 JUMPI PUSH1 0x4 PUSH1 0x0 DUP6 DUP4 DUP2 MLOAD DUP2 LT PUSH2 0xD23 JUMPI INVALID JUMPDEST PUSH1 0x20 MUL PUSH1 0x20 ADD ADD MLOAD DUP2 MSTORE PUSH1 0x20 ADD SWAP1 DUP2 MSTORE PUSH1 0x20 ADD PUSH1 0x0 KECCAK256 PUSH1 0x0 SWAP1 SLOAD SWAP1 PUSH2 0x100 EXP SWAP1 DIV PUSH20 0xFFFFFFFFFFFFFFFFFFFFFFFFFFFFFFFFFFFFFFFF AND DUP3 DUP3 DUP2 MLOAD DUP2 LT PUSH2 0xD66 JUMPI INVALID JUMPDEST PUSH20 0xFFFFFFFFFFFFFFFFFFFFFFFFFFFFFFFFFFFFFFFF SWAP1 SWAP3 AND PUSH1 0x20 SWAP3 DUP4 MUL SWAP2 SWAP1 SWAP2 ADD SWAP1 SWAP2 ADD MSTORE PUSH1 0x1 ADD PUSH2 0xD0A JUMP JUMPDEST POP SWAP3 SWAP2 POP POP JUMP JUMPDEST PUSH1 0x0 DUP2 DUP2 MSTORE PUSH1 0x4 PUSH1 0x20 MSTORE PUSH1 0x40 DUP2 KECCAK256 SLOAD PUSH20 0xFFFFFFFFFFFFFFFFFFFFFFFFFFFFFFFFFFFFFFFF AND DUP1 PUSH2 0x8F4 JUMPI PUSH1 0x40 MLOAD PUSH32 0x8C379A000000000000000000000000000000000000000000000000000000000 DUP2 MSTORE PUSH1 0x4 ADD PUSH2 0x654 SWAP1 PUSH2 0x37FE JUMP JUMPDEST PUSH1 0xE DUP1 SLOAD PUSH1 0x40 DUP1 MLOAD PUSH1 0x20 PUSH1 0x1F PUSH1 0x2 PUSH32 0xFFFFFFFFFFFFFFFFFFFFFFFFFFFFFFFFFFFFFFFFFFFFFFFFFFFFFFFFFFFFFFFF PUSH2 0x100 PUSH1 0x1 DUP9 AND ISZERO MUL ADD SWAP1 SWAP6 AND SWAP5 SWAP1 SWAP5 DIV SWAP4 DUP5 ADD DUP2 SWAP1 DIV DUP2 MUL DUP3 ADD DUP2 ADD SWAP1 SWAP3 MSTORE DUP3 DUP2 MSTORE PUSH1 0x60 SWAP4 SWAP1 SWAP3 SWAP1 SWAP2 DUP4 ADD DUP3 DUP3 DUP1 ISZERO PUSH2 0x608 JUMPI DUP1 PUSH1 0x1F LT PUSH2 0x5DD JUMPI PUSH2 0x100 DUP1 DUP4 SLOAD DIV MUL DUP4 MSTORE SWAP2 PUSH1 0x20 ADD SWAP2 PUSH2 0x608 JUMP JUMPDEST PUSH1 0x0 PUSH20 0xFFFFFFFFFFFFFFFFFFFFFFFFFFFFFFFFFFFFFFFF DUP3 AND PUSH2 0xEC4 JUMPI PUSH1 0x40 MLOAD PUSH32 0x8C379A000000000000000000000000000000000000000000000000000000000 DUP2 MSTORE PUSH1 0x4 ADD PUSH2 0x654 SWAP1 PUSH2 0x37EE JUMP JUMPDEST PUSH20 0xFFFFFFFFFFFFFFFFFFFFFFFFFFFFFFFFFFFFFFFF DUP3 AND PUSH1 0x0 SWAP1 DUP2 MSTORE PUSH1 0x6 PUSH1 0x20 MSTORE PUSH1 0x40 SWAP1 KECCAK256 PUSH2 0x8F4 SWAP1 PUSH2 0x19F3 JUMP JUMPDEST PUSH2 0xEFA PUSH2 0x12B5 JUMP JUMPDEST PUSH2 0xF30 JUMPI PUSH1 0x40 MLOAD PUSH32 0x8C379A000000000000000000000000000000000000000000000000000000000 DUP2 MSTORE PUSH1 0x4 ADD PUSH2 0x654 SWAP1 PUSH2 0x382E JUMP JUMPDEST PUSH1 0x10 SLOAD PUSH1 0x40 MLOAD PUSH1 0x0 SWAP2 PUSH20 0xFFFFFFFFFFFFFFFFFFFFFFFFFFFFFFFFFFFFFFFF AND SWAP1 PUSH32 0x8BE0079C531659141344CD1FD0A4F28419497F9722A3DAAFE3B4186F6B6457E0 SWAP1 DUP4 SWAP1 LOG3 PUSH1 0x10 DUP1 SLOAD PUSH32 0xFFFFFFFFFFFFFFFFFFFFFFFF0000000000000000000000000000000000000000 AND SWAP1 SSTORE JUMP JUMPDEST PUSH1 0x12 SLOAD PUSH20 0xFFFFFFFFFFFFFFFFFFFFFFFFFFFFFFFFFFFFFFFF AND CALLER EQ PUSH2 0xFF0 JUMPI PUSH1 0x40 MLOAD PUSH32 0x8C379A000000000000000000000000000000000000000000000000000000000 DUP2 MSTORE PUSH1 0x4 ADD PUSH2 0x654 SWAP1 PUSH2 0x38BE JUMP JUMPDEST PUSH1 0x0 DUP2 DUP2 MSTORE PUSH1 0x14 PUSH1 0x20 MSTORE PUSH1 0x40 SWAP1 KECCAK256 SLOAD PUSH1 0xFF AND PUSH2 0x1038 JUMPI PUSH1 0x40 MLOAD PUSH32 0x8C379A000000000000000000000000000000000000000000000000000000000 DUP2 MSTORE PUSH1 0x4 ADD PUSH2 0x654 SWAP1 PUSH2 0x37CE JUMP JUMPDEST PUSH20 0xFFFFFFFFFFFFFFFFFFFFFFFFFFFFFFFFFFFFFFFF SWAP1 SWAP2 AND PUSH1 0x0 SWAP1 DUP2 MSTORE PUSH1 0x2 PUSH1 0x20 SWAP1 DUP2 MSTORE PUSH1 0x40 DUP1 DUP4 KECCAK256 SWAP4 DUP4 MSTORE SWAP3 SWAP1 MSTORE KECCAK256 DUP1 SLOAD PUSH32 0xFFFFFFFFFFFFFFFFFFFFFFFFFFFFFFFFFFFFFFFFFFFFFFFFFFFFFFFFFFFFFF00 AND PUSH1 0x1 OR SWAP1 SSTORE JUMP JUMPDEST PUSH1 0x60 PUSH1 0x0 PUSH2 0x10A0 DUP4 PUSH2 0xE75 JUMP JUMPDEST SWAP1 POP DUP1 PUSH2 0x10BD JUMPI POP POP PUSH1 0x40 DUP1 MLOAD PUSH1 0x0 DUP2 MSTORE PUSH1 0x20 DUP2 ADD SWAP1 SWAP2 MSTORE PUSH2 0x559 JUMP JUMPDEST PUSH1 0x60 DUP2 PUSH1 0x40 MLOAD SWAP1 DUP1 DUP3 MSTORE DUP1 PUSH1 0x20 MUL PUSH1 0x20 ADD DUP3 ADD PUSH1 0x40 MSTORE DUP1 ISZERO PUSH2 0x10E9 JUMPI DUP2 PUSH1 0x20 ADD PUSH1 0x20 DUP3 MUL DUP1 CODESIZE DUP4 CODECOPY ADD SWAP1 POP JUMPDEST POP SWAP1 POP PUSH1 0x0 JUMPDEST DUP3 DUP2 LT ISZERO PUSH2 0x1120 JUMPI PUSH2 0x1101 DUP6 DUP3 PUSH2 0x872 JUMP JUMPDEST DUP3 DUP3 DUP2 MLOAD DUP2 LT PUSH2 0x110D JUMPI INVALID JUMPDEST PUSH1 0x20 SWAP1 DUP2 MUL SWAP2 SWAP1 SWAP2 ADD ADD MSTORE PUSH1 0x1 ADD PUSH2 0x10EF JUMP JUMPDEST POP SWAP2 POP PUSH2 0x559 SWAP1 POP JUMP JUMPDEST PUSH1 0x60 DUP1 DUP4 DUP4 SWAP1 POP PUSH1 0x40 MLOAD SWAP1 DUP1 DUP3 MSTORE DUP1 PUSH1 0x20 MUL PUSH1 0x20 ADD DUP3 ADD PUSH1 0x40 MSTORE DUP1 ISZERO PUSH2 0x116A JUMPI DUP2 PUSH1 0x20 ADD JUMPDEST PUSH2 0x1157 PUSH2 0x272F JUMP JUMPDEST DUP2 MSTORE PUSH1 0x20 ADD SWAP1 PUSH1 0x1 SWAP1 SUB SWAP1 DUP2 PUSH2 0x114F JUMPI SWAP1 POP JUMPDEST POP SWAP1 POP PUSH1 0x0 JUMPDEST DUP4 DUP2 LT ISZERO PUSH2 0x1215 JUMPI PUSH1 0x3 DUP6 DUP6 DUP4 DUP2 DUP2 LT PUSH2 0x1186 JUMPI INVALID JUMPDEST SWAP1 POP PUSH1 0x20 MUL ADD CALLDATALOAD DUP2 SLOAD DUP2 LT PUSH2 0x1197 JUMPI INVALID JUMPDEST SWAP1 PUSH1 0x0 MSTORE PUSH1 0x20 PUSH1 0x0 KECCAK256 SWAP1 PUSH1 0x7 MUL ADD PUSH1 0x40 MLOAD DUP1 PUSH1 0xE0 ADD PUSH1 0x40 MSTORE SWAP1 DUP2 PUSH1 0x0 DUP3 ADD SLOAD DUP2 MSTORE PUSH1 0x20 ADD PUSH1 0x1 DUP3 ADD SLOAD DUP2 MSTORE PUSH1 0x20 ADD PUSH1 0x2 DUP3 ADD SLOAD DUP2 MSTORE PUSH1 0x20 ADD PUSH1 0x3 DUP3 ADD SLOAD DUP2 MSTORE PUSH1 0x20 ADD PUSH1 0x4 DUP3 ADD SLOAD DUP2 MSTORE PUSH1 0x20 ADD PUSH1 0x5 DUP3 ADD SLOAD DUP2 MSTORE PUSH1 0x20 ADD PUSH1 0x6 DUP3 ADD SLOAD DUP2 MSTORE POP POP DUP3 DUP3 DUP2 MLOAD DUP2 LT PUSH2 0x1202 JUMPI INVALID JUMPDEST PUSH1 0x20 SWAP1 DUP2 MUL SWAP2 SWAP1 SWAP2 ADD ADD MSTORE PUSH1 0x1 ADD PUSH2 0x1170 JUMP JUMPDEST POP SWAP4 SWAP3 POP POP POP JUMP JUMPDEST PUSH2 0x1225 PUSH2 0x12B5 JUMP JUMPDEST PUSH2 0x125B JUMPI PUSH1 0x40 MLOAD PUSH32 0x8C379A000000000000000000000000000000000000000000000000000000000 DUP2 MSTORE PUSH1 0x4 ADD PUSH2 0x654 SWAP1 PUSH2 0x382E JUMP JUMPDEST PUSH1 0x0 SWAP2 DUP3 MSTORE PUSH1 0x14 PUSH1 0x20 MSTORE PUSH1 0x40 SWAP1 SWAP2 KECCAK256 DUP1 SLOAD PUSH32 0xFFFFFFFFFFFFFFFFFFFFFFFFFFFFFFFFFFFFFFFFFFFFFFFFFFFFFFFFFFFFFF00 AND SWAP2 ISZERO ISZERO SWAP2 SWAP1 SWAP2 OR SWAP1 SSTORE JUMP JUMPDEST PUSH1 0x10 SLOAD PUSH20 0xFFFFFFFFFFFFFFFFFFFFFFFFFFFFFFFFFFFFFFFF AND SWAP1 JUMP JUMPDEST PUSH1 0x10 SLOAD PUSH1 0x0 SWAP1 PUSH20 0xFFFFFFFFFFFFFFFFFFFFFFFFFFFFFFFFFFFFFFFF AND PUSH2 0x12D9 PUSH2 0x18CD JUMP JUMPDEST PUSH20 0xFFFFFFFFFFFFFFFFFFFFFFFFFFFFFFFFFFFFFFFF AND EQ SWAP1 POP SWAP1 JUMP JUMPDEST PUSH1 0xD DUP1 SLOAD PUSH1 0x40 DUP1 MLOAD PUSH1 0x20 PUSH1 0x1F PUSH1 0x2 PUSH32 0xFFFFFFFFFFFFFFFFFFFFFFFFFFFFFFFFFFFFFFFFFFFFFFFFFFFFFFFFFFFFFFFF PUSH2 0x100 PUSH1 0x1 DUP9 AND ISZERO MUL ADD SWAP1 SWAP6 AND SWAP5 SWAP1 SWAP5 DIV SWAP4 DUP5 ADD DUP2 SWAP1 DIV DUP2 MUL DUP3 ADD DUP2 ADD SWAP1 SWAP3 MSTORE DUP3 DUP2 MSTORE PUSH1 0x60 SWAP4 SWAP1 SWAP3 SWAP1 SWAP2 DUP4 ADD DUP3 DUP3 DUP1 ISZERO PUSH2 0x608 JUMPI DUP1 PUSH1 0x1F LT PUSH2 0x5DD JUMPI PUSH2 0x100 DUP1 DUP4 SLOAD DIV MUL DUP4 MSTORE SWAP2 PUSH1 0x20 ADD SWAP2 PUSH2 0x608 JUMP JUMPDEST PUSH2 0x137C PUSH2 0x18CD JUMP JUMPDEST PUSH20 0xFFFFFFFFFFFFFFFFFFFFFFFFFFFFFFFFFFFFFFFF AND DUP3 PUSH20 0xFFFFFFFFFFFFFFFFFFFFFFFFFFFFFFFFFFFFFFFF AND EQ ISZERO PUSH2 0x13E1 JUMPI PUSH1 0x40 MLOAD PUSH32 0x8C379A000000000000000000000000000000000000000000000000000000000 DUP2 MSTORE PUSH1 0x4 ADD PUSH2 0x654 SWAP1 PUSH2 0x37AE JUMP JUMPDEST DUP1 PUSH1 0x7 PUSH1 0x0 PUSH2 0x13EE PUSH2 0x18CD JUMP JUMPDEST PUSH20 0xFFFFFFFFFFFFFFFFFFFFFFFFFFFFFFFFFFFFFFFF SWAP1 DUP2 AND DUP3 MSTORE PUSH1 0x20 DUP1 DUP4 ADD SWAP4 SWAP1 SWAP4 MSTORE PUSH1 0x40 SWAP2 DUP3 ADD PUSH1 0x0 SWAP1 DUP2 KECCAK256 SWAP2 DUP8 AND DUP1 DUP3 MSTORE SWAP2 SWAP1 SWAP4 MSTORE SWAP2 KECCAK256 DUP1 SLOAD PUSH32 0xFFFFFFFFFFFFFFFFFFFFFFFFFFFFFFFFFFFFFFFFFFFFFFFFFFFFFFFFFFFFFF00 AND SWAP3 ISZERO ISZERO SWAP3 SWAP1 SWAP3 OR SWAP1 SWAP2 SSTORE PUSH2 0x145D PUSH2 0x18CD JUMP JUMPDEST PUSH20 0xFFFFFFFFFFFFFFFFFFFFFFFFFFFFFFFFFFFFFFFF AND PUSH32 0x17307EAB39AB6107E8899845AD3D59BD9653F200F220920489CA2B5937696C31 DUP4 PUSH1 0x40 MLOAD PUSH2 0x14A2 SWAP2 SWAP1 PUSH2 0x373F JUMP JUMPDEST PUSH1 0x40 MLOAD DUP1 SWAP2 SUB SWAP1 LOG3 POP POP JUMP JUMPDEST PUSH1 0x12 SLOAD PUSH20 0xFFFFFFFFFFFFFFFFFFFFFFFFFFFFFFFFFFFFFFFF AND DUP2 JUMP JUMPDEST PUSH2 0x14DB PUSH2 0x14D5 PUSH2 0x18CD JUMP JUMPDEST DUP4 PUSH2 0x18D1 JUMP JUMPDEST PUSH2 0x1511 JUMPI PUSH1 0x40 MLOAD PUSH32 0x8C379A000000000000000000000000000000000000000000000000000000000 DUP2 MSTORE PUSH1 0x4 ADD PUSH2 0x654 SWAP1 PUSH2 0x388E JUMP JUMPDEST PUSH2 0x151D DUP5 DUP5 DUP5 DUP5 PUSH2 0x19F7 JUMP JUMPDEST POP POP POP POP JUMP JUMPDEST PUSH2 0x152B PUSH2 0x12B5 JUMP JUMPDEST PUSH2 0x1561 JUMPI PUSH1 0x40 MLOAD PUSH32 0x8C379A000000000000000000000000000000000000000000000000000000000 DUP2 MSTORE PUSH1 0x4 ADD PUSH2 0x654 SWAP1 PUSH2 0x382E JUMP JUMPDEST PUSH1 0x11 DUP1 SLOAD PUSH32 0xFFFFFFFFFFFFFFFFFFFFFFFF0000000000000000000000000000000000000000 AND PUSH20 0xFFFFFFFFFFFFFFFFFFFFFFFFFFFFFFFFFFFFFFFF SWAP3 SWAP1 SWAP3 AND SWAP2 SWAP1 SWAP2 OR SWAP1 SSTORE JUMP JUMPDEST PUSH1 0x60 PUSH2 0x15B3 DUP3 PUSH2 0x18A3 JUMP JUMPDEST PUSH2 0x15E9 JUMPI PUSH1 0x40 MLOAD PUSH32 0x8C379A000000000000000000000000000000000000000000000000000000000 DUP2 MSTORE PUSH1 0x4 ADD PUSH2 0x654 SWAP1 PUSH2 0x384E JUMP JUMPDEST PUSH1 0x0 DUP3 DUP2 MSTORE PUSH1 0xF PUSH1 0x20 SWAP1 DUP2 MSTORE PUSH1 0x40 SWAP2 DUP3 SWAP1 KECCAK256 DUP1 SLOAD DUP4 MLOAD PUSH1 0x1F PUSH1 0x2 PUSH32 0xFFFFFFFFFFFFFFFFFFFFFFFFFFFFFFFFFFFFFFFFFFFFFFFFFFFFFFFFFFFFFFFF PUSH2 0x100 PUSH1 0x1 DUP7 AND ISZERO MUL ADD SWAP1 SWAP4 AND SWAP3 SWAP1 SWAP3 DIV SWAP2 DUP3 ADD DUP5 SWAP1 DIV DUP5 MUL DUP2 ADD DUP5 ADD SWAP1 SWAP5 MSTORE DUP1 DUP5 MSTORE PUSH1 0x60 SWAP4 SWAP3 DUP4 ADD DUP3 DUP3 DUP1 ISZERO PUSH2 0x169C JUMPI DUP1 PUSH1 0x1F LT PUSH2 0x1671 JUMPI PUSH2 0x100 DUP1 DUP4 SLOAD DIV MUL DUP4 MSTORE SWAP2 PUSH1 0x20 ADD SWAP2 PUSH2 0x169C JUMP JUMPDEST DUP3 ADD SWAP2 SWAP1 PUSH1 0x0 MSTORE PUSH1 0x20 PUSH1 0x0 KECCAK256 SWAP1 JUMPDEST DUP2 SLOAD DUP2 MSTORE SWAP1 PUSH1 0x1 ADD SWAP1 PUSH1 0x20 ADD DUP1 DUP4 GT PUSH2 0x167F JUMPI DUP3 SWAP1 SUB PUSH1 0x1F AND DUP3 ADD SWAP2 JUMPDEST POP POP POP POP POP SWAP1 POP DUP1 MLOAD PUSH1 0x0 EQ ISZERO PUSH2 0x16C3 JUMPI POP POP PUSH1 0x40 DUP1 MLOAD PUSH1 0x20 DUP2 ADD SWAP1 SWAP2 MSTORE PUSH1 0x0 DUP2 MSTORE PUSH2 0x559 JUMP JUMPDEST PUSH1 0xE DUP2 PUSH1 0x40 MLOAD PUSH1 0x20 ADD PUSH2 0x16D7 SWAP3 SWAP2 SWAP1 PUSH2 0x36A2 JUMP JUMPDEST PUSH1 0x40 MLOAD PUSH1 0x20 DUP2 DUP4 SUB SUB DUP2 MSTORE SWAP1 PUSH1 0x40 MSTORE SWAP2 POP POP PUSH2 0x559 JUMP JUMPDEST PUSH1 0x3 DUP2 DUP2 SLOAD DUP2 LT PUSH2 0x16FB JUMPI INVALID JUMPDEST SWAP1 PUSH1 0x0 MSTORE PUSH1 0x20 PUSH1 0x0 KECCAK256 SWAP1 PUSH1 0x7 MUL ADD PUSH1 0x0 SWAP2 POP SWAP1 POP DUP1 PUSH1 0x0 ADD SLOAD SWAP1 DUP1 PUSH1 0x1 ADD SLOAD SWAP1 DUP1 PUSH1 0x2 ADD SLOAD SWAP1 DUP1 PUSH1 0x3 ADD SLOAD SWAP1 DUP1 PUSH1 0x4 ADD SLOAD SWAP1 DUP1 PUSH1 0x5 ADD SLOAD SWAP1 DUP1 PUSH1 0x6 ADD SLOAD SWAP1 POP DUP8 JUMP JUMPDEST PUSH2 0x1745 PUSH2 0x12B5 JUMP JUMPDEST PUSH2 0x177B JUMPI PUSH1 0x40 MLOAD PUSH32 0x8C379A000000000000000000000000000000000000000000000000000000000 DUP2 MSTORE PUSH1 0x4 ADD PUSH2 0x654 SWAP1 PUSH2 0x382E JUMP JUMPDEST PUSH1 0x13 SSTORE JUMP JUMPDEST PUSH2 0x1788 PUSH2 0x12B5 JUMP JUMPDEST PUSH2 0x17BE JUMPI PUSH1 0x40 MLOAD PUSH32 0x8C379A000000000000000000000000000000000000000000000000000000000 DUP2 MSTORE PUSH1 0x4 ADD PUSH2 0x654 SWAP1 PUSH2 0x382E JUMP JUMPDEST PUSH1 0x12 DUP1 SLOAD PUSH32 0xFFFFFFFFFFFFFFFFFFFFFFFF0000000000000000000000000000000000000000 AND PUSH20 0xFFFFFFFFFFFFFFFFFFFFFFFFFFFFFFFFFFFFFFFF SWAP3 SWAP1 SWAP3 AND SWAP2 SWAP1 SWAP2 OR SWAP1 SSTORE JUMP JUMPDEST PUSH20 0xFFFFFFFFFFFFFFFFFFFFFFFFFFFFFFFFFFFFFFFF SWAP2 DUP3 AND PUSH1 0x0 SWAP1 DUP2 MSTORE PUSH1 0x7 PUSH1 0x20 SWAP1 DUP2 MSTORE PUSH1 0x40 DUP1 DUP4 KECCAK256 SWAP4 SWAP1 SWAP5 AND DUP3 MSTORE SWAP2 SWAP1 SWAP2 MSTORE KECCAK256 SLOAD PUSH1 0xFF AND SWAP1 JUMP JUMPDEST PUSH2 0x1848 PUSH2 0x12B5 JUMP JUMPDEST PUSH2 0x187E JUMPI PUSH1 0x40 MLOAD PUSH32 0x8C379A000000000000000000000000000000000000000000000000000000000 DUP2 MSTORE PUSH1 0x4 ADD PUSH2 0x654 SWAP1 PUSH2 0x382E JUMP JUMPDEST PUSH2 0xB81 DUP2 PUSH2 0x1A44 JUMP JUMPDEST PUSH1 0x11 SLOAD PUSH20 0xFFFFFFFFFFFFFFFFFFFFFFFFFFFFFFFFFFFFFFFF AND DUP2 JUMP JUMPDEST PUSH1 0x0 SWAP1 DUP2 MSTORE PUSH1 0x4 PUSH1 0x20 MSTORE PUSH1 0x40 SWAP1 KECCAK256 SLOAD PUSH20 0xFFFFFFFFFFFFFFFFFFFFFFFFFFFFFFFFFFFFFFFF AND ISZERO ISZERO SWAP1 JUMP JUMPDEST CALLER SWAP1 JUMP JUMPDEST PUSH1 0x0 PUSH2 0x18DC DUP3 PUSH2 0x18A3 JUMP JUMPDEST PUSH2 0x1912 JUMPI PUSH1 0x40 MLOAD PUSH32 0x8C379A000000000000000000000000000000000000000000000000000000000 DUP2 MSTORE PUSH1 0x4 ADD PUSH2 0x654 SWAP1 PUSH2 0x37BE JUMP JUMPDEST PUSH1 0x0 PUSH2 0x191D DUP4 PUSH2 0xD9A JUMP JUMPDEST SWAP1 POP DUP1 PUSH20 0xFFFFFFFFFFFFFFFFFFFFFFFFFFFFFFFFFFFFFFFF AND DUP5 PUSH20 0xFFFFFFFFFFFFFFFFFFFFFFFFFFFFFFFFFFFFFFFF AND EQ DUP1 PUSH2 0x198C JUMPI POP DUP4 PUSH20 0xFFFFFFFFFFFFFFFFFFFFFFFFFFFFFFFFFFFFFFFF AND PUSH2 0x1974 DUP5 PUSH2 0x613 JUMP JUMPDEST PUSH20 0xFFFFFFFFFFFFFFFFFFFFFFFFFFFFFFFFFFFFFFFF AND EQ JUMPDEST DUP1 PUSH2 0x199C JUMPI POP PUSH2 0x199C DUP2 DUP6 PUSH2 0x1805 JUMP JUMPDEST SWAP5 SWAP4 POP POP POP POP JUMP JUMPDEST PUSH2 0x19AF DUP4 DUP4 DUP4 PUSH2 0x1B1F JUMP JUMPDEST PUSH2 0x19B9 DUP4 DUP3 PUSH2 0x1DF3 JUMP JUMPDEST PUSH2 0x86D DUP3 DUP3 PUSH2 0x1F47 JUMP JUMPDEST PUSH2 0x19DD DUP3 DUP3 PUSH1 0x40 MLOAD DUP1 PUSH1 0x20 ADD PUSH1 0x40 MSTORE DUP1 PUSH1 0x0 DUP2 MSTORE POP PUSH2 0x1F92 JUMP JUMPDEST POP POP JUMP JUMPDEST PUSH2 0xB81 PUSH2 0x19ED DUP3 PUSH2 0xD9A JUMP JUMPDEST DUP3 PUSH2 0x1FDF JUMP JUMPDEST SLOAD SWAP1 JUMP JUMPDEST PUSH2 0x1A02 DUP5 DUP5 DUP5 PUSH2 0x19A4 JUMP JUMPDEST PUSH2 0x1A0E DUP5 DUP5 DUP5 DUP5 PUSH2 0x2045 JUMP JUMPDEST PUSH2 0x151D JUMPI PUSH1 0x40 MLOAD PUSH32 0x8C379A000000000000000000000000000000000000000000000000000000000 DUP2 MSTORE PUSH1 0x4 ADD PUSH2 0x654 SWAP1 PUSH2 0x376E JUMP JUMPDEST PUSH20 0xFFFFFFFFFFFFFFFFFFFFFFFFFFFFFFFFFFFFFFFF DUP2 AND PUSH2 0x1A91 JUMPI PUSH1 0x40 MLOAD PUSH32 0x8C379A000000000000000000000000000000000000000000000000000000000 DUP2 MSTORE PUSH1 0x4 ADD PUSH2 0x654 SWAP1 PUSH2 0x377E JUMP JUMPDEST PUSH1 0x10 SLOAD PUSH1 0x40 MLOAD PUSH20 0xFFFFFFFFFFFFFFFFFFFFFFFFFFFFFFFFFFFFFFFF DUP1 DUP5 AND SWAP3 AND SWAP1 PUSH32 0x8BE0079C531659141344CD1FD0A4F28419497F9722A3DAAFE3B4186F6B6457E0 SWAP1 PUSH1 0x0 SWAP1 LOG3 PUSH1 0x10 DUP1 SLOAD PUSH32 0xFFFFFFFFFFFFFFFFFFFFFFFF0000000000000000000000000000000000000000 AND PUSH20 0xFFFFFFFFFFFFFFFFFFFFFFFFFFFFFFFFFFFFFFFF SWAP3 SWAP1 SWAP3 AND SWAP2 SWAP1 SWAP2 OR SWAP1 SSTORE JUMP JUMPDEST DUP3 PUSH20 0xFFFFFFFFFFFFFFFFFFFFFFFFFFFFFFFFFFFFFFFF AND PUSH2 0x1B3F DUP3 PUSH2 0xD9A JUMP JUMPDEST PUSH20 0xFFFFFFFFFFFFFFFFFFFFFFFFFFFFFFFFFFFFFFFF AND EQ PUSH2 0x1B8C JUMPI PUSH1 0x40 MLOAD PUSH32 0x8C379A000000000000000000000000000000000000000000000000000000000 DUP2 MSTORE PUSH1 0x4 ADD PUSH2 0x654 SWAP1 PUSH2 0x383E JUMP JUMPDEST PUSH20 0xFFFFFFFFFFFFFFFFFFFFFFFFFFFFFFFFFFFFFFFF DUP3 AND PUSH2 0x1BD9 JUMPI PUSH1 0x40 MLOAD PUSH32 0x8C379A000000000000000000000000000000000000000000000000000000000 DUP2 MSTORE PUSH1 0x4 ADD PUSH2 0x654 SWAP1 PUSH2 0x379E JUMP JUMPDEST PUSH1 0x0 PUSH1 0x3 DUP3 DUP2 SLOAD DUP2 LT PUSH2 0x1BE8 JUMPI INVALID JUMPDEST PUSH1 0x0 SWAP2 DUP3 MSTORE PUSH1 0x20 DUP1 DUP4 KECCAK256 PUSH1 0x7 SWAP1 SWAP3 MUL SWAP1 SWAP2 ADD SLOAD PUSH20 0xFFFFFFFFFFFFFFFFFFFFFFFFFFFFFFFFFFFFFFFF DUP8 AND DUP4 MSTORE PUSH1 0x2 DUP3 MSTORE PUSH1 0x40 DUP1 DUP5 KECCAK256 DUP3 DUP6 MSTORE SWAP1 SWAP3 MSTORE SWAP2 KECCAK256 SLOAD SWAP1 SWAP2 POP PUSH1 0xFF AND ISZERO DUP1 PUSH2 0x1C67 JUMPI POP PUSH20 0xFFFFFFFFFFFFFFFFFFFFFFFFFFFFFFFFFFFFFFFF DUP5 AND PUSH1 0x0 SWAP1 DUP2 MSTORE PUSH1 0x1 PUSH1 0x20 DUP2 DUP2 MSTORE PUSH1 0x40 DUP1 DUP5 KECCAK256 DUP6 DUP6 MSTORE SWAP1 SWAP2 MSTORE SWAP1 SWAP2 KECCAK256 SLOAD GT JUMPDEST PUSH2 0x1C9D JUMPI PUSH1 0x40 MLOAD PUSH32 0x8C379A000000000000000000000000000000000000000000000000000000000 DUP2 MSTORE PUSH1 0x4 ADD PUSH2 0x654 SWAP1 PUSH2 0x385E JUMP JUMPDEST PUSH2 0x1CA6 DUP3 PUSH2 0x2248 JUMP JUMPDEST PUSH20 0xFFFFFFFFFFFFFFFFFFFFFFFFFFFFFFFFFFFFFFFF DUP5 AND PUSH1 0x0 SWAP1 DUP2 MSTORE PUSH1 0x6 PUSH1 0x20 MSTORE PUSH1 0x40 SWAP1 KECCAK256 PUSH2 0x1CD4 SWAP1 PUSH2 0x22A8 JUMP JUMPDEST PUSH20 0xFFFFFFFFFFFFFFFFFFFFFFFFFFFFFFFFFFFFFFFF DUP4 AND PUSH1 0x0 SWAP1 DUP2 MSTORE PUSH1 0x6 PUSH1 0x20 MSTORE PUSH1 0x40 SWAP1 KECCAK256 PUSH2 0x1D02 SWAP1 PUSH2 0x22BF JUMP JUMPDEST PUSH1 0x0 DUP3 DUP2 MSTORE PUSH1 0x4 PUSH1 0x20 SWAP1 DUP2 MSTORE PUSH1 0x40 DUP1 DUP4 KECCAK256 DUP1 SLOAD PUSH32 0xFFFFFFFFFFFFFFFFFFFFFFFF0000000000000000000000000000000000000000 AND PUSH20 0xFFFFFFFFFFFFFFFFFFFFFFFFFFFFFFFFFFFFFFFF DUP9 DUP2 AND SWAP2 SWAP1 SWAP2 OR SWAP1 SWAP2 SSTORE DUP8 AND DUP4 MSTORE PUSH1 0x1 DUP1 DUP4 MSTORE DUP2 DUP5 KECCAK256 DUP6 DUP6 MSTORE SWAP1 SWAP3 MSTORE SWAP1 SWAP2 KECCAK256 SLOAD PUSH2 0x1D75 SWAP2 PUSH2 0x22C8 JUMP JUMPDEST PUSH20 0xFFFFFFFFFFFFFFFFFFFFFFFFFFFFFFFFFFFFFFFF DUP1 DUP7 AND PUSH1 0x0 DUP2 DUP2 MSTORE PUSH1 0x1 PUSH1 0x20 DUP2 DUP2 MSTORE PUSH1 0x40 DUP1 DUP5 KECCAK256 DUP9 DUP6 MSTORE DUP3 MSTORE DUP1 DUP5 KECCAK256 SWAP7 SWAP1 SWAP7 SSTORE SWAP4 DUP9 AND DUP1 DUP4 MSTORE DUP2 DUP6 MSTORE DUP6 DUP4 KECCAK256 DUP8 DUP5 MSTORE SWAP1 SWAP5 MSTORE DUP5 DUP3 KECCAK256 DUP1 SLOAD SWAP1 SWAP2 ADD SWAP1 SSTORE SWAP3 MLOAD DUP6 SWAP4 PUSH32 0xDDF252AD1BE2C89B69C2B068FC378DAA952BA7F163C4A11628F55A4DF523B3EF SWAP2 LOG4 POP POP POP POP JUMP JUMPDEST PUSH20 0xFFFFFFFFFFFFFFFFFFFFFFFFFFFFFFFFFFFFFFFF DUP3 AND PUSH1 0x0 SWAP1 DUP2 MSTORE PUSH1 0x8 PUSH1 0x20 MSTORE PUSH1 0x40 DUP2 KECCAK256 SLOAD PUSH2 0x1E2A SWAP1 PUSH1 0x1 PUSH4 0xFFFFFFFF PUSH2 0x22C8 AND JUMP JUMPDEST PUSH1 0x0 DUP4 DUP2 MSTORE PUSH1 0x9 PUSH1 0x20 MSTORE PUSH1 0x40 SWAP1 KECCAK256 SLOAD SWAP1 SWAP2 POP DUP1 DUP3 EQ PUSH2 0x1EEC JUMPI PUSH20 0xFFFFFFFFFFFFFFFFFFFFFFFFFFFFFFFFFFFFFFFF DUP5 AND PUSH1 0x0 SWAP1 DUP2 MSTORE PUSH1 0x8 PUSH1 0x20 MSTORE PUSH1 0x40 DUP2 KECCAK256 DUP1 SLOAD DUP5 SWAP1 DUP2 LT PUSH2 0x1E74 JUMPI INVALID JUMPDEST SWAP1 PUSH1 0x0 MSTORE PUSH1 0x20 PUSH1 0x0 KECCAK256 ADD SLOAD SWAP1 POP DUP1 PUSH1 0x8 PUSH1 0x0 DUP8 PUSH20 0xFFFFFFFFFFFFFFFFFFFFFFFFFFFFFFFFFFFFFFFF AND PUSH20 0xFFFFFFFFFFFFFFFFFFFFFFFFFFFFFFFFFFFFFFFF AND DUP2 MSTORE PUSH1 0x20 ADD SWAP1 DUP2 MSTORE PUSH1 0x20 ADD PUSH1 0x0 KECCAK256 DUP4 DUP2 SLOAD DUP2 LT PUSH2 0x1ECC JUMPI INVALID JUMPDEST PUSH1 0x0 SWAP2 DUP3 MSTORE PUSH1 0x20 DUP1 DUP4 KECCAK256 SWAP1 SWAP2 ADD SWAP3 SWAP1 SWAP3 SSTORE SWAP2 DUP3 MSTORE PUSH1 0x9 SWAP1 MSTORE PUSH1 0x40 SWAP1 KECCAK256 DUP2 SWAP1 SSTORE JUMPDEST PUSH20 0xFFFFFFFFFFFFFFFFFFFFFFFFFFFFFFFFFFFFFFFF DUP5 AND PUSH1 0x0 SWAP1 DUP2 MSTORE PUSH1 0x8 PUSH1 0x20 MSTORE PUSH1 0x40 SWAP1 KECCAK256 DUP1 SLOAD SWAP1 PUSH2 0x1F40 SWAP1 PUSH32 0xFFFFFFFFFFFFFFFFFFFFFFFFFFFFFFFFFFFFFFFFFFFFFFFFFFFFFFFFFFFFFFFF DUP4 ADD PUSH2 0x276C JUMP JUMPDEST POP POP POP POP POP JUMP JUMPDEST PUSH20 0xFFFFFFFFFFFFFFFFFFFFFFFFFFFFFFFFFFFFFFFF SWAP1 SWAP2 AND PUSH1 0x0 SWAP1 DUP2 MSTORE PUSH1 0x8 PUSH1 0x20 DUP2 DUP2 MSTORE PUSH1 0x40 DUP1 DUP5 KECCAK256 DUP1 SLOAD DUP7 DUP7 MSTORE PUSH1 0x9 DUP5 MSTORE SWAP2 DUP6 KECCAK256 DUP3 SWAP1 SSTORE SWAP3 DUP3 MSTORE PUSH1 0x1 DUP2 ADD DUP4 SSTORE SWAP2 DUP4 MSTORE SWAP1 SWAP2 KECCAK256 ADD SSTORE JUMP JUMPDEST PUSH2 0x1F9C DUP4 DUP4 PUSH2 0x2311 JUMP JUMPDEST PUSH2 0x1FA9 PUSH1 0x0 DUP5 DUP5 DUP5 PUSH2 0x2045 JUMP JUMPDEST PUSH2 0x86D JUMPI PUSH1 0x40 MLOAD PUSH32 0x8C379A000000000000000000000000000000000000000000000000000000000 DUP2 MSTORE PUSH1 0x4 ADD PUSH2 0x654 SWAP1 PUSH2 0x376E JUMP JUMPDEST PUSH2 0x1FE9 DUP3 DUP3 PUSH2 0x232E JUMP JUMPDEST PUSH1 0x0 DUP2 DUP2 MSTORE PUSH1 0xF PUSH1 0x20 MSTORE PUSH1 0x40 SWAP1 KECCAK256 SLOAD PUSH1 0x2 PUSH32 0xFFFFFFFFFFFFFFFFFFFFFFFFFFFFFFFFFFFFFFFFFFFFFFFFFFFFFFFFFFFFFFFF PUSH2 0x100 PUSH1 0x1 DUP5 AND ISZERO MUL ADD SWAP1 SWAP2 AND DIV ISZERO PUSH2 0x19DD JUMPI PUSH1 0x0 DUP2 DUP2 MSTORE PUSH1 0xF PUSH1 0x20 MSTORE PUSH1 0x40 DUP2 KECCAK256 PUSH2 0x19DD SWAP2 PUSH2 0x2790 JUMP JUMPDEST PUSH1 0x0 PUSH2 0x2066 DUP5 PUSH20 0xFFFFFFFFFFFFFFFFFFFFFFFFFFFFFFFFFFFFFFFF AND PUSH2 0x235A JUMP JUMPDEST PUSH2 0x2072 JUMPI POP PUSH1 0x1 PUSH2 0x199C JUMP JUMPDEST PUSH1 0x0 PUSH1 0x60 PUSH20 0xFFFFFFFFFFFFFFFFFFFFFFFFFFFFFFFFFFFFFFFF DUP7 AND PUSH32 0x150B7A0200000000000000000000000000000000000000000000000000000000 PUSH2 0x20B6 PUSH2 0x18CD JUMP JUMPDEST DUP10 DUP9 DUP9 PUSH1 0x40 MLOAD PUSH1 0x24 ADD PUSH2 0x20CC SWAP5 SWAP4 SWAP3 SWAP2 SWAP1 PUSH2 0x36C8 JUMP JUMPDEST PUSH1 0x40 DUP1 MLOAD PUSH32 0xFFFFFFFFFFFFFFFFFFFFFFFFFFFFFFFFFFFFFFFFFFFFFFFFFFFFFFFFFFFFFFE0 DUP2 DUP5 SUB ADD DUP2 MSTORE SWAP2 DUP2 MSTORE PUSH1 0x20 DUP3 ADD DUP1 MLOAD PUSH28 0xFFFFFFFFFFFFFFFFFFFFFFFFFFFFFFFFFFFFFFFFFFFFFFFFFFFFFFFF AND PUSH32 0xFFFFFFFF00000000000000000000000000000000000000000000000000000000 SWAP1 SWAP5 AND SWAP4 SWAP1 SWAP4 OR SWAP1 SWAP3 MSTORE SWAP1 MLOAD PUSH2 0x2155 SWAP2 SWAP1 PUSH2 0x3696 JUMP JUMPDEST PUSH1 0x0 PUSH1 0x40 MLOAD DUP1 DUP4 SUB DUP2 PUSH1 0x0 DUP7 GAS CALL SWAP2 POP POP RETURNDATASIZE DUP1 PUSH1 0x0 DUP2 EQ PUSH2 0x2192 JUMPI PUSH1 0x40 MLOAD SWAP2 POP PUSH1 0x1F NOT PUSH1 0x3F RETURNDATASIZE ADD AND DUP3 ADD PUSH1 0x40 MSTORE RETURNDATASIZE DUP3 MSTORE RETURNDATASIZE PUSH1 0x0 PUSH1 0x20 DUP5 ADD RETURNDATACOPY PUSH2 0x2197 JUMP JUMPDEST PUSH1 0x60 SWAP2 POP JUMPDEST POP SWAP2 POP SWAP2 POP DUP2 PUSH2 0x21E3 JUMPI DUP1 MLOAD ISZERO PUSH2 0x21B1 JUMPI DUP1 MLOAD DUP1 DUP3 PUSH1 0x20 ADD REVERT JUMPDEST PUSH1 0x40 MLOAD PUSH32 0x8C379A000000000000000000000000000000000000000000000000000000000 DUP2 MSTORE PUSH1 0x4 ADD PUSH2 0x654 SWAP1 PUSH2 0x376E JUMP JUMPDEST PUSH1 0x0 DUP2 DUP1 PUSH1 0x20 ADD SWAP1 MLOAD PUSH2 0x21F9 SWAP2 SWAP1 DUP2 ADD SWAP1 PUSH2 0x2B4F JUMP JUMPDEST PUSH32 0xFFFFFFFF00000000000000000000000000000000000000000000000000000000 AND PUSH32 0x150B7A0200000000000000000000000000000000000000000000000000000000 EQ SWAP4 POP PUSH2 0x199C SWAP3 POP POP POP JUMP JUMPDEST PUSH1 0x0 DUP2 DUP2 MSTORE PUSH1 0x5 PUSH1 0x20 MSTORE PUSH1 0x40 SWAP1 KECCAK256 SLOAD PUSH20 0xFFFFFFFFFFFFFFFFFFFFFFFFFFFFFFFFFFFFFFFF AND ISZERO PUSH2 0xB81 JUMPI PUSH1 0x0 SWAP1 DUP2 MSTORE PUSH1 0x5 PUSH1 0x20 MSTORE PUSH1 0x40 SWAP1 KECCAK256 DUP1 SLOAD PUSH32 0xFFFFFFFFFFFFFFFFFFFFFFFF0000000000000000000000000000000000000000 AND SWAP1 SSTORE JUMP JUMPDEST DUP1 SLOAD PUSH2 0x22BB SWAP1 PUSH1 0x1 PUSH4 0xFFFFFFFF PUSH2 0x22C8 AND JUMP JUMPDEST SWAP1 SSTORE JUMP JUMPDEST DUP1 SLOAD PUSH1 0x1 ADD SWAP1 SSTORE JUMP JUMPDEST PUSH1 0x0 PUSH2 0x230A DUP4 DUP4 PUSH1 0x40 MLOAD DUP1 PUSH1 0x40 ADD PUSH1 0x40 MSTORE DUP1 PUSH1 0x1E DUP2 MSTORE PUSH1 0x20 ADD PUSH32 0x536166654D6174683A207375627472616374696F6E206F766572666C6F770000 DUP2 MSTORE POP PUSH2 0x2393 JUMP JUMPDEST SWAP4 SWAP3 POP POP POP JUMP JUMPDEST PUSH2 0x231B DUP3 DUP3 PUSH2 0x23D9 JUMP JUMPDEST PUSH2 0x2325 DUP3 DUP3 PUSH2 0x1F47 JUMP JUMPDEST PUSH2 0x19DD DUP2 PUSH2 0x2513 JUMP JUMPDEST PUSH2 0x2338 DUP3 DUP3 PUSH2 0x2557 JUMP JUMPDEST PUSH2 0x2342 DUP3 DUP3 PUSH2 0x1DF3 JUMP JUMPDEST PUSH1 0x0 DUP2 DUP2 MSTORE PUSH1 0x9 PUSH1 0x20 MSTORE PUSH1 0x40 DUP2 KECCAK256 SSTORE PUSH2 0x19DD DUP2 PUSH2 0x2675 JUMP JUMPDEST PUSH1 0x0 DUP2 EXTCODEHASH PUSH32 0xC5D2460186F7233C927E7DB2DCC703C0E500B653CA82273B7BFAD8045D85A470 DUP2 DUP2 EQ DUP1 ISZERO SWAP1 PUSH2 0x199C JUMPI POP POP ISZERO ISZERO SWAP3 SWAP2 POP POP JUMP JUMPDEST PUSH1 0x0 DUP2 DUP5 DUP5 GT ISZERO PUSH2 0x23D1 JUMPI PUSH1 0x40 MLOAD PUSH32 0x8C379A000000000000000000000000000000000000000000000000000000000 DUP2 MSTORE PUSH1 0x4 ADD PUSH2 0x654 SWAP2 SWAP1 PUSH2 0x374D JUMP JUMPDEST POP POP POP SWAP1 SUB SWAP1 JUMP JUMPDEST PUSH20 0xFFFFFFFFFFFFFFFFFFFFFFFFFFFFFFFFFFFFFFFF DUP3 AND PUSH2 0x2426 JUMPI PUSH1 0x40 MLOAD PUSH32 0x8C379A000000000000000000000000000000000000000000000000000000000 DUP2 MSTORE PUSH1 0x4 ADD PUSH2 0x654 SWAP1 PUSH2 0x380E JUMP JUMPDEST PUSH2 0x242F DUP2 PUSH2 0x18A3 JUMP JUMPDEST ISZERO PUSH2 0x2466 JUMPI PUSH1 0x40 MLOAD PUSH32 0x8C379A000000000000000000000000000000000000000000000000000000000 DUP2 MSTORE PUSH1 0x4 ADD PUSH2 0x654 SWAP1 PUSH2 0x378E JUMP JUMPDEST PUSH1 0x0 DUP2 DUP2 MSTORE PUSH1 0x4 PUSH1 0x20 SWAP1 DUP2 MSTORE PUSH1 0x40 DUP1 DUP4 KECCAK256 DUP1 SLOAD PUSH32 0xFFFFFFFFFFFFFFFFFFFFFFFF0000000000000000000000000000000000000000 AND PUSH20 0xFFFFFFFFFFFFFFFFFFFFFFFFFFFFFFFFFFFFFFFF DUP8 AND SWAP1 DUP2 OR SWAP1 SWAP2 SSTORE DUP4 MSTORE PUSH1 0x6 SWAP1 SWAP2 MSTORE SWAP1 KECCAK256 PUSH2 0x24CA SWAP1 PUSH2 0x22BF JUMP JUMPDEST PUSH1 0x40 MLOAD DUP2 SWAP1 PUSH20 0xFFFFFFFFFFFFFFFFFFFFFFFFFFFFFFFFFFFFFFFF DUP5 AND SWAP1 PUSH1 0x0 SWAP1 PUSH32 0xDDF252AD1BE2C89B69C2B068FC378DAA952BA7F163C4A11628F55A4DF523B3EF SWAP1 DUP3 SWAP1 LOG4 POP POP JUMP JUMPDEST PUSH1 0xA DUP1 SLOAD PUSH1 0x0 DUP4 DUP2 MSTORE PUSH1 0xB PUSH1 0x20 MSTORE PUSH1 0x40 DUP2 KECCAK256 DUP3 SWAP1 SSTORE PUSH1 0x1 DUP3 ADD DUP4 SSTORE SWAP2 SWAP1 SWAP2 MSTORE PUSH32 0xC65A7BB8D6351C1CF70C95A316CC6A92839C986682D98BC35F958F4883F9D2A8 ADD SSTORE JUMP JUMPDEST DUP2 PUSH20 0xFFFFFFFFFFFFFFFFFFFFFFFFFFFFFFFFFFFFFFFF AND PUSH2 0x2577 DUP3 PUSH2 0xD9A JUMP JUMPDEST PUSH20 0xFFFFFFFFFFFFFFFFFFFFFFFFFFFFFFFFFFFFFFFF AND EQ PUSH2 0x25C4 JUMPI PUSH1 0x40 MLOAD PUSH32 0x8C379A000000000000000000000000000000000000000000000000000000000 DUP2 MSTORE PUSH1 0x4 ADD PUSH2 0x654 SWAP1 PUSH2 0x38AE JUMP JUMPDEST PUSH2 0x25CD DUP2 PUSH2 0x2248 JUMP JUMPDEST PUSH20 0xFFFFFFFFFFFFFFFFFFFFFFFFFFFFFFFFFFFFFFFF DUP3 AND PUSH1 0x0 SWAP1 DUP2 MSTORE PUSH1 0x6 PUSH1 0x20 MSTORE PUSH1 0x40 SWAP1 KECCAK256 PUSH2 0x25FB SWAP1 PUSH2 0x22A8 JUMP JUMPDEST PUSH1 0x0 DUP2 DUP2 MSTORE PUSH1 0x4 PUSH1 0x20 MSTORE PUSH1 0x40 DUP1 DUP3 KECCAK256 DUP1 SLOAD PUSH32 0xFFFFFFFFFFFFFFFFFFFFFFFF0000000000000000000000000000000000000000 AND SWAP1 SSTORE MLOAD DUP3 SWAP2 SWAP1 PUSH20 0xFFFFFFFFFFFFFFFFFFFFFFFFFFFFFFFFFFFFFFFF DUP6 AND SWAP1 PUSH32 0xDDF252AD1BE2C89B69C2B068FC378DAA952BA7F163C4A11628F55A4DF523B3EF SWAP1 DUP4 SWAP1 LOG4 POP POP JUMP JUMPDEST PUSH1 0xA SLOAD PUSH1 0x0 SWAP1 PUSH2 0x268C SWAP1 PUSH1 0x1 PUSH4 0xFFFFFFFF PUSH2 0x22C8 AND JUMP JUMPDEST PUSH1 0x0 DUP4 DUP2 MSTORE PUSH1 0xB PUSH1 0x20 MSTORE PUSH1 0x40 DUP2 KECCAK256 SLOAD PUSH1 0xA DUP1 SLOAD SWAP4 SWAP5 POP SWAP1 SWAP3 DUP5 SWAP1 DUP2 LT PUSH2 0x26AE JUMPI INVALID JUMPDEST SWAP1 PUSH1 0x0 MSTORE PUSH1 0x20 PUSH1 0x0 KECCAK256 ADD SLOAD SWAP1 POP DUP1 PUSH1 0xA DUP4 DUP2 SLOAD DUP2 LT PUSH2 0x26C9 JUMPI INVALID JUMPDEST PUSH1 0x0 SWAP2 DUP3 MSTORE PUSH1 0x20 DUP1 DUP4 KECCAK256 SWAP1 SWAP2 ADD SWAP3 SWAP1 SWAP3 SSTORE DUP3 DUP2 MSTORE PUSH1 0xB SWAP1 SWAP2 MSTORE PUSH1 0x40 SWAP1 KECCAK256 DUP3 SWAP1 SSTORE PUSH1 0xA DUP1 SLOAD SWAP1 PUSH2 0x271A SWAP1 PUSH32 0xFFFFFFFFFFFFFFFFFFFFFFFFFFFFFFFFFFFFFFFFFFFFFFFFFFFFFFFFFFFFFFFF DUP4 ADD PUSH2 0x276C JUMP JUMPDEST POP POP POP PUSH1 0x0 SWAP2 DUP3 MSTORE POP PUSH1 0xB PUSH1 0x20 MSTORE PUSH1 0x40 DUP2 KECCAK256 SSTORE JUMP JUMPDEST PUSH1 0x40 MLOAD DUP1 PUSH1 0xE0 ADD PUSH1 0x40 MSTORE DUP1 PUSH1 0x0 DUP2 MSTORE PUSH1 0x20 ADD PUSH1 0x0 DUP2 MSTORE PUSH1 0x20 ADD PUSH1 0x0 DUP2 MSTORE PUSH1 0x20 ADD PUSH1 0x0 DUP2 MSTORE PUSH1 0x20 ADD PUSH1 0x0 DUP2 MSTORE PUSH1 0x20 ADD PUSH1 0x0 DUP2 MSTORE PUSH1 0x20 ADD PUSH1 0x0 DUP2 MSTORE POP SWAP1 JUMP JUMPDEST DUP2 SLOAD DUP2 DUP4 SSTORE DUP2 DUP2 GT ISZERO PUSH2 0x86D JUMPI PUSH1 0x0 DUP4 DUP2 MSTORE PUSH1 0x20 SWAP1 KECCAK256 PUSH2 0x86D SWAP2 DUP2 ADD SWAP1 DUP4 ADD PUSH2 0x27D0 JUMP JUMPDEST POP DUP1 SLOAD PUSH1 0x1 DUP2 PUSH1 0x1 AND ISZERO PUSH2 0x100 MUL SUB AND PUSH1 0x2 SWAP1 DIV PUSH1 0x0 DUP3 SSTORE DUP1 PUSH1 0x1F LT PUSH2 0x27B6 JUMPI POP PUSH2 0xB81 JUMP JUMPDEST PUSH1 0x1F ADD PUSH1 0x20 SWAP1 DIV SWAP1 PUSH1 0x0 MSTORE PUSH1 0x20 PUSH1 0x0 KECCAK256 SWAP1 DUP2 ADD SWAP1 PUSH2 0xB81 SWAP2 SWAP1 JUMPDEST PUSH2 0x610 SWAP2 SWAP1 JUMPDEST DUP1 DUP3 GT ISZERO PUSH2 0x27EA JUMPI PUSH1 0x0 DUP2 SSTORE PUSH1 0x1 ADD PUSH2 0x27D6 JUMP JUMPDEST POP SWAP1 JUMP JUMPDEST DUP1 CALLDATALOAD PUSH2 0x8F4 DUP2 PUSH2 0x3ABF JUMP JUMPDEST PUSH1 0x0 DUP1 DUP4 PUSH1 0x1F DUP5 ADD SLT PUSH2 0x280B JUMPI PUSH1 0x0 DUP1 REVERT JUMPDEST POP DUP2 CALLDATALOAD PUSH8 0xFFFFFFFFFFFFFFFF DUP2 GT ISZERO PUSH2 0x2823 JUMPI PUSH1 0x0 DUP1 REVERT JUMPDEST PUSH1 0x20 DUP4 ADD SWAP2 POP DUP4 PUSH1 0x20 DUP3 MUL DUP4 ADD GT ISZERO PUSH2 0x283B JUMPI PUSH1 0x0 DUP1 REVERT JUMPDEST SWAP3 POP SWAP3 SWAP1 POP JUMP JUMPDEST PUSH1 0x0 DUP3 PUSH1 0x1F DUP4 ADD SLT PUSH2 0x2853 JUMPI PUSH1 0x0 DUP1 REVERT JUMPDEST DUP2 CALLDATALOAD PUSH2 0x2866 PUSH2 0x2861 DUP3 PUSH2 0x398B JUMP JUMPDEST PUSH2 0x3964 JUMP JUMPDEST SWAP2 POP DUP2 DUP2 DUP4 MSTORE PUSH1 0x20 DUP5 ADD SWAP4 POP PUSH1 0x20 DUP2 ADD SWAP1 POP DUP4 DUP6 PUSH1 0x20 DUP5 MUL DUP3 ADD GT ISZERO PUSH2 0x288B JUMPI PUSH1 0x0 DUP1 REVERT JUMPDEST PUSH1 0x0 JUMPDEST DUP4 DUP2 LT ISZERO PUSH2 0x28B7 JUMPI DUP2 PUSH2 0x28A1 DUP9 DUP3 PUSH2 0x2931 JUMP JUMPDEST DUP5 MSTORE POP PUSH1 0x20 SWAP3 DUP4 ADD SWAP3 SWAP2 SWAP1 SWAP2 ADD SWAP1 PUSH1 0x1 ADD PUSH2 0x288E JUMP JUMPDEST POP POP POP POP SWAP3 SWAP2 POP POP JUMP JUMPDEST DUP1 CALLDATALOAD PUSH2 0x8F4 DUP2 PUSH2 0x3AD3 JUMP JUMPDEST DUP1 CALLDATALOAD PUSH2 0x8F4 DUP2 PUSH2 0x3ADC JUMP JUMPDEST DUP1 MLOAD PUSH2 0x8F4 DUP2 PUSH2 0x3ADC JUMP JUMPDEST PUSH1 0x0 DUP3 PUSH1 0x1F DUP4 ADD SLT PUSH2 0x28F3 JUMPI PUSH1 0x0 DUP1 REVERT JUMPDEST DUP2 CALLDATALOAD PUSH2 0x2901 PUSH2 0x2861 DUP3 PUSH2 0x39AC JUMP JUMPDEST SWAP2 POP DUP1 DUP3 MSTORE PUSH1 0x20 DUP4 ADD PUSH1 0x20 DUP4 ADD DUP6 DUP4 DUP4 ADD GT ISZERO PUSH2 0x291D JUMPI PUSH1 0x0 DUP1 REVERT JUMPDEST PUSH2 0x2928 DUP4 DUP3 DUP5 PUSH2 0x3A5F JUMP JUMPDEST POP POP POP SWAP3 SWAP2 POP POP JUMP JUMPDEST DUP1 CALLDATALOAD PUSH2 0x8F4 DUP2 PUSH2 0x3AE5 JUMP JUMPDEST PUSH1 0x0 PUSH1 0x20 DUP3 DUP5 SUB SLT ISZERO PUSH2 0x294E JUMPI PUSH1 0x0 DUP1 REVERT JUMPDEST PUSH1 0x0 PUSH2 0x199C DUP5 DUP5 PUSH2 0x27EE JUMP JUMPDEST PUSH1 0x0 DUP1 PUSH1 0x40 DUP4 DUP6 SUB SLT ISZERO PUSH2 0x296D JUMPI PUSH1 0x0 DUP1 REVERT JUMPDEST PUSH1 0x0 PUSH2 0x2979 DUP6 DUP6 PUSH2 0x27EE JUMP JUMPDEST SWAP3 POP POP PUSH1 0x20 PUSH2 0x298A DUP6 DUP3 DUP7 ADD PUSH2 0x27EE JUMP JUMPDEST SWAP2 POP POP SWAP3 POP SWAP3 SWAP1 POP JUMP JUMPDEST PUSH1 0x0 DUP1 PUSH1 0x0 PUSH1 0x60 DUP5 DUP7 SUB SLT ISZERO PUSH2 0x29A9 JUMPI PUSH1 0x0 DUP1 REVERT JUMPDEST PUSH1 0x0 PUSH2 0x29B5 DUP7 DUP7 PUSH2 0x27EE JUMP JUMPDEST SWAP4 POP POP PUSH1 0x20 PUSH2 0x29C6 DUP7 DUP3 DUP8 ADD PUSH2 0x27EE JUMP JUMPDEST SWAP3 POP POP PUSH1 0x40 PUSH2 0x29D7 DUP7 DUP3 DUP8 ADD PUSH2 0x2931 JUMP JUMPDEST SWAP2 POP POP SWAP3 POP SWAP3 POP SWAP3 JUMP JUMPDEST PUSH1 0x0 DUP1 PUSH1 0x0 DUP1 PUSH1 0x80 DUP6 DUP8 SUB SLT ISZERO PUSH2 0x29F7 JUMPI PUSH1 0x0 DUP1 REVERT JUMPDEST PUSH1 0x0 PUSH2 0x2A03 DUP8 DUP8 PUSH2 0x27EE JUMP JUMPDEST SWAP5 POP POP PUSH1 0x20 PUSH2 0x2A14 DUP8 DUP3 DUP9 ADD PUSH2 0x27EE JUMP JUMPDEST SWAP4 POP POP PUSH1 0x40 PUSH2 0x2A25 DUP8 DUP3 DUP9 ADD PUSH2 0x2931 JUMP JUMPDEST SWAP3 POP POP PUSH1 0x60 DUP6 ADD CALLDATALOAD PUSH8 0xFFFFFFFFFFFFFFFF DUP2 GT ISZERO PUSH2 0x2A42 JUMPI PUSH1 0x0 DUP1 REVERT JUMPDEST PUSH2 0x2A4E DUP8 DUP3 DUP9 ADD PUSH2 0x28E2 JUMP JUMPDEST SWAP2 POP POP SWAP3 SWAP6 SWAP2 SWAP5 POP SWAP3 POP JUMP JUMPDEST PUSH1 0x0 DUP1 PUSH1 0x40 DUP4 DUP6 SUB SLT ISZERO PUSH2 0x2A6D JUMPI PUSH1 0x0 DUP1 REVERT JUMPDEST PUSH1 0x0 PUSH2 0x2A79 DUP6 DUP6 PUSH2 0x27EE JUMP JUMPDEST SWAP3 POP POP PUSH1 0x20 PUSH2 0x298A DUP6 DUP3 DUP7 ADD PUSH2 0x28C1 JUMP JUMPDEST PUSH1 0x0 DUP1 PUSH1 0x40 DUP4 DUP6 SUB SLT ISZERO PUSH2 0x2A9D JUMPI PUSH1 0x0 DUP1 REVERT JUMPDEST PUSH1 0x0 PUSH2 0x2AA9 DUP6 DUP6 PUSH2 0x27EE JUMP JUMPDEST SWAP3 POP POP PUSH1 0x20 PUSH2 0x298A DUP6 DUP3 DUP7 ADD PUSH2 0x2931 JUMP JUMPDEST PUSH1 0x0 DUP1 PUSH1 0x20 DUP4 DUP6 SUB SLT ISZERO PUSH2 0x2ACD JUMPI PUSH1 0x0 DUP1 REVERT JUMPDEST DUP3 CALLDATALOAD PUSH8 0xFFFFFFFFFFFFFFFF DUP2 GT ISZERO PUSH2 0x2AE4 JUMPI PUSH1 0x0 DUP1 REVERT JUMPDEST PUSH2 0x2AF0 DUP6 DUP3 DUP7 ADD PUSH2 0x27F9 JUMP JUMPDEST SWAP3 POP SWAP3 POP POP SWAP3 POP SWAP3 SWAP1 POP JUMP JUMPDEST PUSH1 0x0 PUSH1 0x20 DUP3 DUP5 SUB SLT ISZERO PUSH2 0x2B0E JUMPI PUSH1 0x0 DUP1 REVERT JUMPDEST DUP2 CALLDATALOAD PUSH8 0xFFFFFFFFFFFFFFFF DUP2 GT ISZERO PUSH2 0x2B25 JUMPI PUSH1 0x0 DUP1 REVERT JUMPDEST PUSH2 0x199C DUP5 DUP3 DUP6 ADD PUSH2 0x2842 JUMP JUMPDEST PUSH1 0x0 PUSH1 0x20 DUP3 DUP5 SUB SLT ISZERO PUSH2 0x2B43 JUMPI PUSH1 0x0 DUP1 REVERT JUMPDEST PUSH1 0x0 PUSH2 0x199C DUP5 DUP5 PUSH2 0x28CC JUMP JUMPDEST PUSH1 0x0 PUSH1 0x20 DUP3 DUP5 SUB SLT ISZERO PUSH2 0x2B61 JUMPI PUSH1 0x0 DUP1 REVERT JUMPDEST PUSH1 0x0 PUSH2 0x199C DUP5 DUP5 PUSH2 0x28D7 JUMP JUMPDEST PUSH1 0x0 PUSH1 0x20 DUP3 DUP5 SUB SLT ISZERO PUSH2 0x2B7F JUMPI PUSH1 0x0 DUP1 REVERT JUMPDEST PUSH1 0x0 PUSH2 0x199C DUP5 DUP5 PUSH2 0x2931 JUMP JUMPDEST PUSH1 0x0 DUP1 PUSH1 0x40 DUP4 DUP6 SUB SLT ISZERO PUSH2 0x2B9E JUMPI PUSH1 0x0 DUP1 REVERT JUMPDEST PUSH1 0x0 PUSH2 0x2A79 DUP6 DUP6 PUSH2 0x2931 JUMP JUMPDEST PUSH1 0x0 PUSH2 0x2BB6 DUP4 DUP4 PUSH2 0x2BDE JUMP JUMPDEST POP POP PUSH1 0x20 ADD SWAP1 JUMP JUMPDEST PUSH1 0x0 PUSH2 0x2BCA DUP4 DUP4 PUSH2 0x360E JUMP JUMPDEST POP POP PUSH1 0xE0 ADD SWAP1 JUMP JUMPDEST PUSH1 0x0 PUSH2 0x2BB6 DUP4 DUP4 PUSH2 0x368D JUMP JUMPDEST PUSH2 0x2BE7 DUP2 PUSH2 0x3A11 JUMP JUMPDEST DUP3 MSTORE POP POP JUMP JUMPDEST PUSH1 0x0 PUSH2 0x2BF8 DUP3 PUSH2 0x3A04 JUMP JUMPDEST PUSH2 0x2C02 DUP2 DUP6 PUSH2 0x3A08 JUMP JUMPDEST SWAP4 POP PUSH2 0x2C0D DUP4 PUSH2 0x39F2 JUMP JUMPDEST DUP1 PUSH1 0x0 JUMPDEST DUP4 DUP2 LT ISZERO PUSH2 0x2C3B JUMPI DUP2 MLOAD PUSH2 0x2C25 DUP9 DUP3 PUSH2 0x2BAA JUMP JUMPDEST SWAP8 POP PUSH2 0x2C30 DUP4 PUSH2 0x39F2 JUMP JUMPDEST SWAP3 POP POP PUSH1 0x1 ADD PUSH2 0x2C11 JUMP JUMPDEST POP SWAP5 SWAP6 SWAP5 POP POP POP POP POP JUMP JUMPDEST PUSH1 0x0 PUSH2 0x2C51 DUP3 PUSH2 0x3A04 JUMP JUMPDEST PUSH2 0x2C5B DUP2 DUP6 PUSH2 0x3A08 JUMP JUMPDEST SWAP4 POP PUSH2 0x2C66 DUP4 PUSH2 0x39F2 JUMP JUMPDEST DUP1 PUSH1 0x0 JUMPDEST DUP4 DUP2 LT ISZERO PUSH2 0x2C3B JUMPI DUP2 MLOAD PUSH2 0x2C7E DUP9 DUP3 PUSH2 0x2BBE JUMP JUMPDEST SWAP8 POP PUSH2 0x2C89 DUP4 PUSH2 0x39F2 JUMP JUMPDEST SWAP3 POP POP PUSH1 0x1 ADD PUSH2 0x2C6A JUMP JUMPDEST PUSH1 0x0 PUSH2 0x2C9F DUP3 PUSH2 0x3A04 JUMP JUMPDEST PUSH2 0x2CA9 DUP2 DUP6 PUSH2 0x3A08 JUMP JUMPDEST SWAP4 POP PUSH2 0x2CB4 DUP4 PUSH2 0x39F2 JUMP JUMPDEST DUP1 PUSH1 0x0 JUMPDEST DUP4 DUP2 LT ISZERO PUSH2 0x2C3B JUMPI DUP2 MLOAD PUSH2 0x2CCC DUP9 DUP3 PUSH2 0x2BD2 JUMP JUMPDEST SWAP8 POP PUSH2 0x2CD7 DUP4 PUSH2 0x39F2 JUMP JUMPDEST SWAP3 POP POP PUSH1 0x1 ADD PUSH2 0x2CB8 JUMP JUMPDEST PUSH2 0x2BE7 DUP2 PUSH2 0x3A1C JUMP JUMPDEST PUSH1 0x0 PUSH2 0x2CF6 DUP3 PUSH2 0x3A04 JUMP JUMPDEST PUSH2 0x2D00 DUP2 DUP6 PUSH2 0x3A08 JUMP JUMPDEST SWAP4 POP PUSH2 0x2D10 DUP2 DUP6 PUSH1 0x20 DUP7 ADD PUSH2 0x3A6B JUMP JUMPDEST PUSH2 0x2D19 DUP2 PUSH2 0x3A97 JUMP JUMPDEST SWAP1 SWAP4 ADD SWAP4 SWAP3 POP POP POP JUMP JUMPDEST PUSH1 0x0 PUSH2 0x2D2E DUP3 PUSH2 0x3A04 JUMP JUMPDEST PUSH2 0x2D38 DUP2 DUP6 PUSH2 0x559 JUMP JUMPDEST SWAP4 POP PUSH2 0x2D48 DUP2 DUP6 PUSH1 0x20 DUP7 ADD PUSH2 0x3A6B JUMP JUMPDEST SWAP3 SWAP1 SWAP3 ADD SWAP3 SWAP2 POP POP JUMP JUMPDEST PUSH1 0x0 DUP2 SLOAD PUSH1 0x1 DUP2 AND PUSH1 0x0 DUP2 EQ PUSH2 0x2D6F JUMPI PUSH1 0x1 DUP2 EQ PUSH2 0x2DB0 JUMPI PUSH2 0x2DEF JUMP JUMPDEST PUSH1 0x7F PUSH1 0x2 DUP4 DIV AND PUSH2 0x2D80 DUP2 DUP8 PUSH2 0x559 JUMP JUMPDEST PUSH32 0xFFFFFFFFFFFFFFFFFFFFFFFFFFFFFFFFFFFFFFFFFFFFFFFFFFFFFFFFFFFFFF00 DUP5 AND DUP2 MSTORE SWAP6 POP DUP6 ADD SWAP3 POP PUSH2 0x2DEF JUMP JUMPDEST PUSH1 0x2 DUP3 DIV PUSH2 0x2DBE DUP2 DUP8 PUSH2 0x559 JUMP JUMPDEST SWAP6 POP PUSH2 0x2DC9 DUP6 PUSH2 0x39F8 JUMP JUMPDEST PUSH1 0x0 JUMPDEST DUP3 DUP2 LT ISZERO PUSH2 0x2DE8 JUMPI DUP2 SLOAD DUP9 DUP3 ADD MSTORE PUSH1 0x1 SWAP1 SWAP2 ADD SWAP1 PUSH1 0x20 ADD PUSH2 0x2DCC JUMP JUMPDEST POP POP DUP6 ADD SWAP3 POP JUMPDEST POP POP SWAP3 SWAP2 POP POP JUMP JUMPDEST PUSH1 0x0 PUSH2 0x2E04 PUSH1 0x2B DUP4 PUSH2 0x3A08 JUMP JUMPDEST PUSH32 0x455243373231456E756D657261626C653A206F776E657220696E646578206F75 DUP2 MSTORE PUSH32 0x74206F6620626F756E6473000000000000000000000000000000000000000000 PUSH1 0x20 DUP3 ADD MSTORE PUSH1 0x40 ADD SWAP3 SWAP2 POP POP JUMP JUMPDEST PUSH1 0x0 PUSH2 0x2E63 PUSH1 0x32 DUP4 PUSH2 0x3A08 JUMP JUMPDEST PUSH32 0x4552433732313A207472616E7366657220746F206E6F6E204552433732315265 DUP2 MSTORE PUSH32 0x63656976657220696D706C656D656E7465720000000000000000000000000000 PUSH1 0x20 DUP3 ADD MSTORE PUSH1 0x40 ADD SWAP3 SWAP2 POP POP JUMP JUMPDEST PUSH1 0x0 PUSH2 0x2EC2 PUSH1 0x26 DUP4 PUSH2 0x3A08 JUMP JUMPDEST PUSH32 0x4F776E61626C653A206E6577206F776E657220697320746865207A65726F2061 DUP2 MSTORE PUSH32 0x6464726573730000000000000000000000000000000000000000000000000000 PUSH1 0x20 DUP3 ADD MSTORE PUSH1 0x40 ADD SWAP3 SWAP2 POP POP JUMP JUMPDEST PUSH1 0x0 PUSH2 0x2F21 PUSH1 0x1C DUP4 PUSH2 0x3A08 JUMP JUMPDEST PUSH32 0x4552433732313A20746F6B656E20616C7265616479206D696E74656400000000 DUP2 MSTORE PUSH1 0x20 ADD SWAP3 SWAP2 POP POP JUMP JUMPDEST PUSH1 0x0 PUSH2 0x2F5A PUSH1 0x24 DUP4 PUSH2 0x3A08 JUMP JUMPDEST PUSH32 0x4552433732313A207472616E7366657220746F20746865207A65726F20616464 DUP2 MSTORE PUSH32 0x7265737300000000000000000000000000000000000000000000000000000000 PUSH1 0x20 DUP3 ADD MSTORE PUSH1 0x40 ADD SWAP3 SWAP2 POP POP JUMP JUMPDEST PUSH1 0x0 PUSH2 0x2FB9 PUSH1 0x19 DUP4 PUSH2 0x3A08 JUMP JUMPDEST PUSH32 0x4552433732313A20617070726F766520746F2063616C6C657200000000000000 DUP2 MSTORE PUSH1 0x20 ADD SWAP3 SWAP2 POP POP JUMP JUMPDEST PUSH1 0x0 PUSH2 0x2FF2 PUSH1 0x2C DUP4 PUSH2 0x3A08 JUMP JUMPDEST PUSH32 0x4552433732313A206F70657261746F7220717565727920666F72206E6F6E6578 DUP2 MSTORE PUSH32 0x697374656E7420746F6B656E0000000000000000000000000000000000000000 PUSH1 0x20 DUP3 ADD MSTORE PUSH1 0x40 ADD SWAP3 SWAP2 POP POP JUMP JUMPDEST PUSH1 0x0 PUSH2 0x3051 PUSH1 0xF DUP4 PUSH2 0x3A08 JUMP JUMPDEST PUSH32 0x496E76616C696420506C616E6E65740000000000000000000000000000000000 DUP2 MSTORE PUSH1 0x20 ADD SWAP3 SWAP2 POP POP JUMP JUMPDEST PUSH1 0x0 PUSH2 0x308A PUSH1 0x38 DUP4 PUSH2 0x3A08 JUMP JUMPDEST PUSH32 0x4552433732313A20617070726F76652063616C6C6572206973206E6F74206F77 DUP2 MSTORE PUSH32 0x6E6572206E6F7220617070726F76656420666F7220616C6C0000000000000000 PUSH1 0x20 DUP3 ADD MSTORE PUSH1 0x40 ADD SWAP3 SWAP2 POP POP JUMP JUMPDEST PUSH1 0x0 PUSH2 0x30E9 PUSH1 0x2A DUP4 PUSH2 0x3A08 JUMP JUMPDEST PUSH32 0x4552433732313A2062616C616E636520717565727920666F7220746865207A65 DUP2 MSTORE PUSH32 0x726F206164647265737300000000000000000000000000000000000000000000 PUSH1 0x20 DUP3 ADD MSTORE PUSH1 0x40 ADD SWAP3 SWAP2 POP POP JUMP JUMPDEST PUSH1 0x0 PUSH2 0x3148 PUSH1 0x29 DUP4 PUSH2 0x3A08 JUMP JUMPDEST PUSH32 0x4552433732313A206F776E657220717565727920666F72206E6F6E6578697374 DUP2 MSTORE PUSH32 0x656E7420746F6B656E0000000000000000000000000000000000000000000000 PUSH1 0x20 DUP3 ADD MSTORE PUSH1 0x40 ADD SWAP3 SWAP2 POP POP JUMP JUMPDEST PUSH1 0x0 PUSH2 0x31A7 PUSH1 0x20 DUP4 PUSH2 0x3A08 JUMP JUMPDEST PUSH32 0x4552433732313A206D696E7420746F20746865207A65726F2061646472657373 DUP2 MSTORE PUSH1 0x20 ADD SWAP3 SWAP2 POP POP JUMP JUMPDEST PUSH1 0x0 PUSH2 0x31E0 PUSH1 0x2C DUP4 PUSH2 0x3A08 JUMP JUMPDEST PUSH32 0x4552433732313A20617070726F76656420717565727920666F72206E6F6E6578 DUP2 MSTORE PUSH32 0x697374656E7420746F6B656E0000000000000000000000000000000000000000 PUSH1 0x20 DUP3 ADD MSTORE PUSH1 0x40 ADD SWAP3 SWAP2 POP POP JUMP JUMPDEST PUSH1 0x0 PUSH2 0x323F PUSH1 0x20 DUP4 PUSH2 0x3A08 JUMP JUMPDEST PUSH32 0x4F776E61626C653A2063616C6C6572206973206E6F7420746865206F776E6572 DUP2 MSTORE PUSH1 0x20 ADD SWAP3 SWAP2 POP POP JUMP JUMPDEST PUSH1 0x0 PUSH2 0x3278 PUSH1 0x29 DUP4 PUSH2 0x3A08 JUMP JUMPDEST PUSH32 0x4552433732313A207472616E73666572206F6620746F6B656E20746861742069 DUP2 MSTORE PUSH32 0x73206E6F74206F776E0000000000000000000000000000000000000000000000 PUSH1 0x20 DUP3 ADD MSTORE PUSH1 0x40 ADD SWAP3 SWAP2 POP POP JUMP JUMPDEST PUSH1 0x0 PUSH2 0x32D7 PUSH1 0x2F DUP4 PUSH2 0x3A08 JUMP JUMPDEST PUSH32 0x4552433732314D657461646174613A2055524920717565727920666F72206E6F DUP2 MSTORE PUSH32 0x6E6578697374656E7420746F6B656E0000000000000000000000000000000000 PUSH1 0x20 DUP3 ADD MSTORE PUSH1 0x40 ADD SWAP3 SWAP2 POP POP JUMP JUMPDEST PUSH1 0x0 PUSH2 0x3336 PUSH1 0x31 DUP4 PUSH2 0x3A08 JUMP JUMPDEST PUSH32 0x596F75206D75737420776974686472617720616C6C204C5020746F6B656E2066 DUP2 MSTORE PUSH32 0x726F6D204661726D696E67206669727374000000000000000000000000000000 PUSH1 0x20 DUP3 ADD MSTORE PUSH1 0x40 ADD SWAP3 SWAP2 POP POP JUMP JUMPDEST PUSH1 0x0 PUSH2 0x3395 PUSH1 0x21 DUP4 PUSH2 0x3A08 JUMP JUMPDEST PUSH32 0x4552433732313A20617070726F76616C20746F2063757272656E74206F776E65 DUP2 MSTORE PUSH32 0x7200000000000000000000000000000000000000000000000000000000000000 PUSH1 0x20 DUP3 ADD MSTORE PUSH1 0x40 ADD SWAP3 SWAP2 POP POP JUMP JUMPDEST PUSH1 0x0 PUSH2 0x33F4 PUSH1 0x15 DUP4 PUSH2 0x3A08 JUMP JUMPDEST PUSH32 0x496E76616C696420706C616E6E65742076616C75650000000000000000000000 DUP2 MSTORE PUSH1 0x20 ADD SWAP3 SWAP2 POP POP JUMP JUMPDEST PUSH1 0x0 PUSH2 0x342D PUSH1 0x31 DUP4 PUSH2 0x3A08 JUMP JUMPDEST PUSH32 0x4552433732313A207472616E736665722063616C6C6572206973206E6F74206F DUP2 MSTORE PUSH32 0x776E6572206E6F7220617070726F766564000000000000000000000000000000 PUSH1 0x20 DUP3 ADD MSTORE PUSH1 0x40 ADD SWAP3 SWAP2 POP POP JUMP JUMPDEST PUSH1 0x0 PUSH2 0x348C PUSH1 0x2C DUP4 PUSH2 0x3A08 JUMP JUMPDEST PUSH32 0x455243373231456E756D657261626C653A20676C6F62616C20696E646578206F DUP2 MSTORE PUSH32 0x7574206F6620626F756E64730000000000000000000000000000000000000000 PUSH1 0x20 DUP3 ADD MSTORE PUSH1 0x40 ADD SWAP3 SWAP2 POP POP JUMP JUMPDEST PUSH1 0x0 PUSH2 0x34EB PUSH1 0x25 DUP4 PUSH2 0x3A08 JUMP JUMPDEST PUSH32 0x4552433732313A206275726E206F6620746F6B656E2074686174206973206E6F DUP2 MSTORE PUSH32 0x74206F776E000000000000000000000000000000000000000000000000000000 PUSH1 0x20 DUP3 ADD MSTORE PUSH1 0x40 ADD SWAP3 SWAP2 POP POP JUMP JUMPDEST PUSH1 0x0 PUSH2 0x354A PUSH1 0x19 DUP4 PUSH2 0x3A08 JUMP JUMPDEST PUSH32 0x53656E646572206D7573742062652047656D466163746F727900000000000000 DUP2 MSTORE PUSH1 0x20 ADD SWAP3 SWAP2 POP POP JUMP JUMPDEST PUSH1 0x0 PUSH2 0x3583 PUSH1 0x30 DUP4 PUSH2 0x3A08 JUMP JUMPDEST PUSH32 0x4552433732314275726E61626C653A2063616C6C6572206973206E6F74206F77 DUP2 MSTORE PUSH32 0x6E6572206E6F7220617070726F76656400000000000000000000000000000000 PUSH1 0x20 DUP3 ADD MSTORE PUSH1 0x40 ADD SWAP3 SWAP2 POP POP JUMP JUMPDEST PUSH1 0x0 PUSH2 0x35E2 PUSH1 0x17 DUP4 PUSH2 0x3A08 JUMP JUMPDEST PUSH32 0x446566692057617272696F723A20466F7262696464656E000000000000000000 DUP2 MSTORE PUSH1 0x20 ADD SWAP3 SWAP2 POP POP JUMP JUMPDEST DUP1 MLOAD PUSH1 0xE0 DUP4 ADD SWAP1 PUSH2 0x361F DUP5 DUP3 PUSH2 0x368D JUMP JUMPDEST POP PUSH1 0x20 DUP3 ADD MLOAD PUSH2 0x3632 PUSH1 0x20 DUP6 ADD DUP3 PUSH2 0x368D JUMP JUMPDEST POP PUSH1 0x40 DUP3 ADD MLOAD PUSH2 0x3645 PUSH1 0x40 DUP6 ADD DUP3 PUSH2 0x368D JUMP JUMPDEST POP PUSH1 0x60 DUP3 ADD MLOAD PUSH2 0x3658 PUSH1 0x60 DUP6 ADD DUP3 PUSH2 0x368D JUMP JUMPDEST POP PUSH1 0x80 DUP3 ADD MLOAD PUSH2 0x366B PUSH1 0x80 DUP6 ADD DUP3 PUSH2 0x368D JUMP JUMPDEST POP PUSH1 0xA0 DUP3 ADD MLOAD PUSH2 0x367E PUSH1 0xA0 DUP6 ADD DUP3 PUSH2 0x368D JUMP JUMPDEST POP PUSH1 0xC0 DUP3 ADD MLOAD PUSH2 0x151D PUSH1 0xC0 DUP6 ADD DUP3 JUMPDEST PUSH2 0x2BE7 DUP2 PUSH2 0x610 JUMP JUMPDEST PUSH1 0x0 PUSH2 0x230A DUP3 DUP5 PUSH2 0x2D23 JUMP JUMPDEST PUSH1 0x0 PUSH2 0x36AE DUP3 DUP6 PUSH2 0x2D52 JUMP JUMPDEST SWAP2 POP PUSH2 0x199C DUP3 DUP5 PUSH2 0x2D23 JUMP JUMPDEST PUSH1 0x20 DUP2 ADD PUSH2 0x8F4 DUP3 DUP5 PUSH2 0x2BDE JUMP JUMPDEST PUSH1 0x80 DUP2 ADD PUSH2 0x36D6 DUP3 DUP8 PUSH2 0x2BDE JUMP JUMPDEST PUSH2 0x36E3 PUSH1 0x20 DUP4 ADD DUP7 PUSH2 0x2BDE JUMP JUMPDEST PUSH2 0x36F0 PUSH1 0x40 DUP4 ADD DUP6 PUSH2 0x368D JUMP JUMPDEST DUP2 DUP2 SUB PUSH1 0x60 DUP4 ADD MSTORE PUSH2 0x3702 DUP2 DUP5 PUSH2 0x2CEB JUMP JUMPDEST SWAP7 SWAP6 POP POP POP POP POP POP JUMP JUMPDEST PUSH1 0x20 DUP1 DUP3 MSTORE DUP2 ADD PUSH2 0x230A DUP2 DUP5 PUSH2 0x2BED JUMP JUMPDEST PUSH1 0x20 DUP1 DUP3 MSTORE DUP2 ADD PUSH2 0x230A DUP2 DUP5 PUSH2 0x2C46 JUMP JUMPDEST PUSH1 0x20 DUP1 DUP3 MSTORE DUP2 ADD PUSH2 0x230A DUP2 DUP5 PUSH2 0x2C94 JUMP JUMPDEST PUSH1 0x20 DUP2 ADD PUSH2 0x8F4 DUP3 DUP5 PUSH2 0x2CE2 JUMP JUMPDEST PUSH1 0x20 DUP1 DUP3 MSTORE DUP2 ADD PUSH2 0x230A DUP2 DUP5 PUSH2 0x2CEB JUMP JUMPDEST PUSH1 0x20 DUP1 DUP3 MSTORE DUP2 ADD PUSH2 0x8F4 DUP2 PUSH2 0x2DF7 JUMP JUMPDEST PUSH1 0x20 DUP1 DUP3 MSTORE DUP2 ADD PUSH2 0x8F4 DUP2 PUSH2 0x2E56 JUMP JUMPDEST PUSH1 0x20 DUP1 DUP3 MSTORE DUP2 ADD PUSH2 0x8F4 DUP2 PUSH2 0x2EB5 JUMP JUMPDEST PUSH1 0x20 DUP1 DUP3 MSTORE DUP2 ADD PUSH2 0x8F4 DUP2 PUSH2 0x2F14 JUMP JUMPDEST PUSH1 0x20 DUP1 DUP3 MSTORE DUP2 ADD PUSH2 0x8F4 DUP2 PUSH2 0x2F4D JUMP JUMPDEST PUSH1 0x20 DUP1 DUP3 MSTORE DUP2 ADD PUSH2 0x8F4 DUP2 PUSH2 0x2FAC JUMP JUMPDEST PUSH1 0x20 DUP1 DUP3 MSTORE DUP2 ADD PUSH2 0x8F4 DUP2 PUSH2 0x2FE5 JUMP JUMPDEST PUSH1 0x20 DUP1 DUP3 MSTORE DUP2 ADD PUSH2 0x8F4 DUP2 PUSH2 0x3044 JUMP JUMPDEST PUSH1 0x20 DUP1 DUP3 MSTORE DUP2 ADD PUSH2 0x8F4 DUP2 PUSH2 0x307D JUMP JUMPDEST PUSH1 0x20 DUP1 DUP3 MSTORE DUP2 ADD PUSH2 0x8F4 DUP2 PUSH2 0x30DC JUMP JUMPDEST PUSH1 0x20 DUP1 DUP3 MSTORE DUP2 ADD PUSH2 0x8F4 DUP2 PUSH2 0x313B JUMP JUMPDEST PUSH1 0x20 DUP1 DUP3 MSTORE DUP2 ADD PUSH2 0x8F4 DUP2 PUSH2 0x319A JUMP JUMPDEST PUSH1 0x20 DUP1 DUP3 MSTORE DUP2 ADD PUSH2 0x8F4 DUP2 PUSH2 0x31D3 JUMP JUMPDEST PUSH1 0x20 DUP1 DUP3 MSTORE DUP2 ADD PUSH2 0x8F4 DUP2 PUSH2 0x3232 JUMP JUMPDEST PUSH1 0x20 DUP1 DUP3 MSTORE DUP2 ADD PUSH2 0x8F4 DUP2 PUSH2 0x326B JUMP JUMPDEST PUSH1 0x20 DUP1 DUP3 MSTORE DUP2 ADD PUSH2 0x8F4 DUP2 PUSH2 0x32CA JUMP JUMPDEST PUSH1 0x20 DUP1 DUP3 MSTORE DUP2 ADD PUSH2 0x8F4 DUP2 PUSH2 0x3329 JUMP JUMPDEST PUSH1 0x20 DUP1 DUP3 MSTORE DUP2 ADD PUSH2 0x8F4 DUP2 PUSH2 0x3388 JUMP JUMPDEST PUSH1 0x20 DUP1 DUP3 MSTORE DUP2 ADD PUSH2 0x8F4 DUP2 PUSH2 0x33E7 JUMP JUMPDEST PUSH1 0x20 DUP1 DUP3 MSTORE DUP2 ADD PUSH2 0x8F4 DUP2 PUSH2 0x3420 JUMP JUMPDEST PUSH1 0x20 DUP1 DUP3 MSTORE DUP2 ADD PUSH2 0x8F4 DUP2 PUSH2 0x347F JUMP JUMPDEST PUSH1 0x20 DUP1 DUP3 MSTORE DUP2 ADD PUSH2 0x8F4 DUP2 PUSH2 0x34DE JUMP JUMPDEST PUSH1 0x20 DUP1 DUP3 MSTORE DUP2 ADD PUSH2 0x8F4 DUP2 PUSH2 0x353D JUMP JUMPDEST PUSH1 0x20 DUP1 DUP3 MSTORE DUP2 ADD PUSH2 0x8F4 DUP2 PUSH2 0x3576 JUMP JUMPDEST PUSH1 0x20 DUP1 DUP3 MSTORE DUP2 ADD PUSH2 0x8F4 DUP2 PUSH2 0x35D5 JUMP JUMPDEST PUSH1 0x20 DUP2 ADD PUSH2 0x8F4 DUP3 DUP5 PUSH2 0x368D JUMP JUMPDEST PUSH1 0xE0 DUP2 ADD PUSH2 0x390A DUP3 DUP11 PUSH2 0x368D JUMP JUMPDEST PUSH2 0x3917 PUSH1 0x20 DUP4 ADD DUP10 PUSH2 0x368D JUMP JUMPDEST PUSH2 0x3924 PUSH1 0x40 DUP4 ADD DUP9 PUSH2 0x368D JUMP JUMPDEST PUSH2 0x3931 PUSH1 0x60 DUP4 ADD DUP8 PUSH2 0x368D JUMP JUMPDEST PUSH2 0x393E PUSH1 0x80 DUP4 ADD DUP7 PUSH2 0x368D JUMP JUMPDEST PUSH2 0x394B PUSH1 0xA0 DUP4 ADD DUP6 PUSH2 0x368D JUMP JUMPDEST PUSH2 0x3958 PUSH1 0xC0 DUP4 ADD DUP5 PUSH2 0x368D JUMP JUMPDEST SWAP9 SWAP8 POP POP POP POP POP POP POP POP JUMP JUMPDEST PUSH1 0x40 MLOAD DUP2 DUP2 ADD PUSH8 0xFFFFFFFFFFFFFFFF DUP2 GT DUP3 DUP3 LT OR ISZERO PUSH2 0x3983 JUMPI PUSH1 0x0 DUP1 REVERT JUMPDEST PUSH1 0x40 MSTORE SWAP2 SWAP1 POP JUMP JUMPDEST PUSH1 0x0 PUSH8 0xFFFFFFFFFFFFFFFF DUP3 GT ISZERO PUSH2 0x39A2 JUMPI PUSH1 0x0 DUP1 REVERT JUMPDEST POP PUSH1 0x20 SWAP1 DUP2 MUL ADD SWAP1 JUMP JUMPDEST PUSH1 0x0 PUSH8 0xFFFFFFFFFFFFFFFF DUP3 GT ISZERO PUSH2 0x39C3 JUMPI PUSH1 0x0 DUP1 REVERT JUMPDEST POP PUSH1 0x20 PUSH1 0x1F SWAP2 SWAP1 SWAP2 ADD PUSH32 0xFFFFFFFFFFFFFFFFFFFFFFFFFFFFFFFFFFFFFFFFFFFFFFFFFFFFFFFFFFFFFFE0 AND ADD SWAP1 JUMP JUMPDEST PUSH1 0x20 ADD SWAP1 JUMP JUMPDEST PUSH1 0x0 SWAP1 DUP2 MSTORE PUSH1 0x20 SWAP1 KECCAK256 SWAP1 JUMP JUMPDEST MLOAD SWAP1 JUMP JUMPDEST SWAP1 DUP2 MSTORE PUSH1 0x20 ADD SWAP1 JUMP JUMPDEST PUSH1 0x0 PUSH2 0x8F4 DUP3 PUSH2 0x3A46 JUMP JUMPDEST ISZERO ISZERO SWAP1 JUMP JUMPDEST PUSH32 0xFFFFFFFF00000000000000000000000000000000000000000000000000000000 AND SWAP1 JUMP JUMPDEST PUSH20 0xFFFFFFFFFFFFFFFFFFFFFFFFFFFFFFFFFFFFFFFF AND SWAP1 JUMP JUMPDEST DUP3 DUP2 DUP4 CALLDATACOPY POP PUSH1 0x0 SWAP2 ADD MSTORE JUMP JUMPDEST PUSH1 0x0 JUMPDEST DUP4 DUP2 LT ISZERO PUSH2 0x3A86 JUMPI DUP2 DUP2 ADD MLOAD DUP4 DUP3 ADD MSTORE PUSH1 0x20 ADD PUSH2 0x3A6E JUMP JUMPDEST DUP4 DUP2 GT ISZERO PUSH2 0x151D JUMPI POP POP PUSH1 0x0 SWAP2 ADD MSTORE JUMP JUMPDEST PUSH1 0x1F ADD PUSH32 0xFFFFFFFFFFFFFFFFFFFFFFFFFFFFFFFFFFFFFFFFFFFFFFFFFFFFFFFFFFFFFFE0 AND SWAP1 JUMP JUMPDEST PUSH2 0x3AC8 DUP2 PUSH2 0x3A11 JUMP JUMPDEST DUP2 EQ PUSH2 0xB81 JUMPI PUSH1 0x0 DUP1 REVERT JUMPDEST PUSH2 0x3AC8 DUP2 PUSH2 0x3A1C JUMP JUMPDEST PUSH2 0x3AC8 DUP2 PUSH2 0x3A21 JUMP JUMPDEST PUSH2 0x3AC8 DUP2 PUSH2 0x610 JUMP INVALID LOG3 PUSH6 0x627A7A723158 KECCAK256 EXTCODEHASH PUSH8 0x2B93C3AB0CBC54C7 LOG1 PC SLOAD PC 0xE2 0x4C XOR SWAP10 SDIV 0xC1 SWAP7 MUL INVALID DIFFICULTY 0xC LOG1 0xCB SMOD 0x27 RETURN 0x1F 0xB3 PUSH13 0x6578706572696D656E74616CF5 PUSH5 0x736F6C6343 STOP SDIV LT STOP BLOCKHASH "
    }
  },
  "interface": [
    {
      "inputs": [
        {
          "internalType": "string",
          "name": "name",
          "type": "string"
        },
        {
          "internalType": "string",
          "name": "symbol",
          "type": "string"
        }
      ],
      "payable": false,
      "stateMutability": "nonpayable",
      "type": "constructor"
    },
    {
      "anonymous": false,
      "inputs": [
        {
          "indexed": true,
          "internalType": "address",
          "name": "owner",
          "type": "address"
        },
        {
          "indexed": true,
          "internalType": "address",
          "name": "approved",
          "type": "address"
        },
        {
          "indexed": true,
          "internalType": "uint256",
          "name": "tokenId",
          "type": "uint256"
        }
      ],
      "name": "Approval",
      "type": "event"
    },
    {
      "anonymous": false,
      "inputs": [
        {
          "indexed": true,
          "internalType": "address",
          "name": "owner",
          "type": "address"
        },
        {
          "indexed": true,
          "internalType": "address",
          "name": "operator",
          "type": "address"
        },
        {
          "indexed": false,
          "internalType": "bool",
          "name": "approved",
          "type": "bool"
        }
      ],
      "name": "ApprovalForAll",
      "type": "event"
    },
    {
      "anonymous": false,
      "inputs": [
        {
          "indexed": true,
          "internalType": "address",
          "name": "previousOwner",
          "type": "address"
        },
        {
          "indexed": true,
          "internalType": "address",
          "name": "newOwner",
          "type": "address"
        }
      ],
      "name": "OwnershipTransferred",
      "type": "event"
    },
    {
      "anonymous": false,
      "inputs": [
        {
          "indexed": true,
          "internalType": "address",
          "name": "from",
          "type": "address"
        },
        {
          "indexed": true,
          "internalType": "address",
          "name": "to",
          "type": "address"
        },
        {
          "indexed": true,
          "internalType": "uint256",
          "name": "tokenId",
          "type": "uint256"
        }
      ],
      "name": "Transfer",
      "type": "event"
    },
    {
      "constant": false,
      "inputs": [
        {
          "internalType": "address",
          "name": "to",
          "type": "address"
        },
        {
          "internalType": "uint256",
          "name": "tokenId",
          "type": "uint256"
        }
      ],
      "name": "approve",
      "outputs": [],
      "payable": false,
      "stateMutability": "nonpayable",
      "type": "function"
    },
    {
      "constant": true,
      "inputs": [
        {
          "internalType": "uint256",
          "name": "",
          "type": "uint256"
        }
      ],
      "name": "attributes",
      "outputs": [
        {
          "internalType": "uint256",
          "name": "plannet",
          "type": "uint256"
        },
        {
          "internalType": "uint256",
          "name": "tribe",
          "type": "uint256"
        },
        {
          "internalType": "uint256",
          "name": "health",
          "type": "uint256"
        },
        {
          "internalType": "uint256",
          "name": "critRate",
          "type": "uint256"
        },
        {
          "internalType": "uint256",
          "name": "critMultiplier",
          "type": "uint256"
        },
        {
          "internalType": "uint256",
          "name": "skill",
          "type": "uint256"
        },
        {
          "internalType": "uint256",
          "name": "attack",
          "type": "uint256"
        }
      ],
      "payable": false,
      "stateMutability": "view",
      "type": "function"
    },
    {
      "constant": true,
      "inputs": [
        {
          "internalType": "address",
          "name": "owner",
          "type": "address"
        }
      ],
      "name": "balanceOf",
      "outputs": [
        {
          "internalType": "uint256",
          "name": "",
          "type": "uint256"
        }
      ],
      "payable": false,
      "stateMutability": "view",
      "type": "function"
    },
    {
      "constant": true,
      "inputs": [],
      "name": "baseURI",
      "outputs": [
        {
          "internalType": "string",
          "name": "",
          "type": "string"
        }
      ],
      "payable": false,
      "stateMutability": "view",
      "type": "function"
    },
    {
      "constant": false,
      "inputs": [
        {
          "internalType": "uint256",
          "name": "tokenId",
          "type": "uint256"
        }
      ],
      "name": "burn",
      "outputs": [],
      "payable": false,
      "stateMutability": "nonpayable",
      "type": "function"
    },
    {
      "constant": true,
      "inputs": [],
      "name": "gemFactory",
      "outputs": [
        {
          "internalType": "address",
          "name": "",
          "type": "address"
        }
      ],
      "payable": false,
      "stateMutability": "view",
      "type": "function"
    },
    {
      "constant": true,
      "inputs": [
        {
          "internalType": "uint256",
          "name": "tokenId",
          "type": "uint256"
        }
      ],
      "name": "getApproved",
      "outputs": [
        {
          "internalType": "address",
          "name": "",
          "type": "address"
        }
      ],
      "payable": false,
      "stateMutability": "view",
      "type": "function"
    },
    {
      "constant": true,
      "inputs": [
        {
          "internalType": "uint256[]",
          "name": "ids",
          "type": "uint256[]"
        }
      ],
      "name": "getWarriors",
      "outputs": [
        {
          "components": [
            {
              "internalType": "uint256",
              "name": "plannet",
              "type": "uint256"
            },
            {
              "internalType": "uint256",
              "name": "tribe",
              "type": "uint256"
            },
            {
              "internalType": "uint256",
              "name": "health",
              "type": "uint256"
            },
            {
              "internalType": "uint256",
              "name": "critRate",
              "type": "uint256"
            },
            {
              "internalType": "uint256",
              "name": "critMultiplier",
              "type": "uint256"
            },
            {
              "internalType": "uint256",
              "name": "skill",
              "type": "uint256"
            },
            {
              "internalType": "uint256",
              "name": "attack",
              "type": "uint256"
            }
          ],
          "internalType": "struct ERC721.Attribute[]",
          "name": "",
          "type": "tuple[]"
        }
      ],
      "payable": false,
      "stateMutability": "view",
      "type": "function"
    },
    {
      "constant": true,
      "inputs": [
        {
          "internalType": "address",
          "name": "owner",
          "type": "address"
        },
        {
          "internalType": "address",
          "name": "operator",
          "type": "address"
        }
      ],
      "name": "isApprovedForAll",
      "outputs": [
        {
          "internalType": "bool",
          "name": "",
          "type": "bool"
        }
      ],
      "payable": false,
      "stateMutability": "view",
      "type": "function"
    },
    {
      "constant": true,
      "inputs": [],
      "name": "isOwner",
      "outputs": [
        {
          "internalType": "bool",
          "name": "",
          "type": "bool"
        }
      ],
      "payable": false,
      "stateMutability": "view",
      "type": "function"
    },
    {
      "constant": false,
      "inputs": [
        {
          "internalType": "address",
          "name": "tokenOwner",
          "type": "address"
        },
        {
          "internalType": "uint256",
          "name": "plannet",
          "type": "uint256"
        }
      ],
      "name": "mint",
      "outputs": [
        {
          "internalType": "uint256",
          "name": "",
          "type": "uint256"
        }
      ],
      "payable": false,
      "stateMutability": "nonpayable",
      "type": "function"
    },
    {
      "constant": true,
      "inputs": [],
      "name": "name",
      "outputs": [
        {
          "internalType": "string",
          "name": "",
          "type": "string"
        }
      ],
      "payable": false,
      "stateMutability": "view",
      "type": "function"
    },
    {
      "constant": true,
      "inputs": [
        {
          "internalType": "address",
          "name": "",
          "type": "address"
        },
        {
          "internalType": "uint256",
          "name": "",
          "type": "uint256"
        }
      ],
      "name": "numWarriorInClan",
      "outputs": [
        {
          "internalType": "uint256",
          "name": "",
          "type": "uint256"
        }
      ],
      "payable": false,
      "stateMutability": "view",
      "type": "function"
    },
    {
      "constant": true,
      "inputs": [],
      "name": "owner",
      "outputs": [
        {
          "internalType": "address",
          "name": "",
          "type": "address"
        }
      ],
      "payable": false,
      "stateMutability": "view",
      "type": "function"
    },
    {
      "constant": true,
      "inputs": [
        {
          "internalType": "uint256",
          "name": "tokenId",
          "type": "uint256"
        }
      ],
      "name": "ownerOf",
      "outputs": [
        {
          "internalType": "address",
          "name": "",
          "type": "address"
        }
      ],
      "payable": false,
      "stateMutability": "view",
      "type": "function"
    },
    {
      "constant": true,
      "inputs": [
        {
          "internalType": "uint256[]",
          "name": "ids",
          "type": "uint256[]"
        }
      ],
      "name": "ownersOf",
      "outputs": [
        {
          "internalType": "address[]",
          "name": "",
          "type": "address[]"
        }
      ],
      "payable": false,
      "stateMutability": "view",
      "type": "function"
    },
    {
      "constant": false,
      "inputs": [],
      "name": "renounceOwnership",
      "outputs": [],
      "payable": false,
      "stateMutability": "nonpayable",
      "type": "function"
    },
    {
      "constant": true,
      "inputs": [],
      "name": "router",
      "outputs": [
        {
          "internalType": "address",
          "name": "",
          "type": "address"
        }
      ],
      "payable": false,
      "stateMutability": "view",
      "type": "function"
    },
    {
      "constant": false,
      "inputs": [
        {
          "internalType": "address",
          "name": "from",
          "type": "address"
        },
        {
          "internalType": "address",
          "name": "to",
          "type": "address"
        },
        {
          "internalType": "uint256",
          "name": "tokenId",
          "type": "uint256"
        }
      ],
      "name": "safeTransferFrom",
      "outputs": [],
      "payable": false,
      "stateMutability": "nonpayable",
      "type": "function"
    },
    {
      "constant": false,
      "inputs": [
        {
          "internalType": "address",
          "name": "from",
          "type": "address"
        },
        {
          "internalType": "address",
          "name": "to",
          "type": "address"
        },
        {
          "internalType": "uint256",
          "name": "tokenId",
          "type": "uint256"
        },
        {
          "internalType": "bytes",
          "name": "_data",
          "type": "bytes"
        }
      ],
      "name": "safeTransferFrom",
      "outputs": [],
      "payable": false,
      "stateMutability": "nonpayable",
      "type": "function"
    },
    {
      "constant": false,
      "inputs": [
        {
          "internalType": "address",
          "name": "to",
          "type": "address"
        },
        {
          "internalType": "bool",
          "name": "approved",
          "type": "bool"
        }
      ],
      "name": "setApprovalForAll",
      "outputs": [],
      "payable": false,
      "stateMutability": "nonpayable",
      "type": "function"
    },
    {
      "constant": false,
      "inputs": [
        {
          "internalType": "address",
          "name": "_gemFactory",
          "type": "address"
        }
      ],
      "name": "setGemFactory",
      "outputs": [],
      "payable": false,
      "stateMutability": "nonpayable",
      "type": "function"
    },
    {
      "constant": false,
      "inputs": [
        {
          "internalType": "uint256",
          "name": "_maxTribe",
          "type": "uint256"
        }
      ],
      "name": "setMaxTribe",
      "outputs": [],
      "payable": false,
      "stateMutability": "nonpayable",
      "type": "function"
    },
    {
      "constant": false,
      "inputs": [
        {
          "internalType": "address",
          "name": "_router",
          "type": "address"
        }
      ],
      "name": "setRouter",
      "outputs": [],
      "payable": false,
      "stateMutability": "nonpayable",
      "type": "function"
    },
    {
      "constant": false,
      "inputs": [
        {
          "internalType": "address",
          "name": "user",
          "type": "address"
        },
        {
          "internalType": "uint256",
          "name": "plannet",
          "type": "uint256"
        }
      ],
      "name": "startFarming",
      "outputs": [],
      "payable": false,
      "stateMutability": "nonpayable",
      "type": "function"
    },
    {
      "constant": false,
      "inputs": [
        {
          "internalType": "address",
          "name": "user",
          "type": "address"
        },
        {
          "internalType": "uint256",
          "name": "plannet",
          "type": "uint256"
        }
      ],
      "name": "stopFarming",
      "outputs": [],
      "payable": false,
      "stateMutability": "nonpayable",
      "type": "function"
    },
    {
      "constant": true,
      "inputs": [
        {
          "internalType": "bytes4",
          "name": "interfaceId",
          "type": "bytes4"
        }
      ],
      "name": "supportsInterface",
      "outputs": [
        {
          "internalType": "bool",
          "name": "",
          "type": "bool"
        }
      ],
      "payable": false,
      "stateMutability": "view",
      "type": "function"
    },
    {
      "constant": true,
      "inputs": [],
      "name": "symbol",
      "outputs": [
        {
          "internalType": "string",
          "name": "",
          "type": "string"
        }
      ],
      "payable": false,
      "stateMutability": "view",
      "type": "function"
    },
    {
      "constant": true,
      "inputs": [
        {
          "internalType": "uint256",
          "name": "index",
          "type": "uint256"
        }
      ],
      "name": "tokenByIndex",
      "outputs": [
        {
          "internalType": "uint256",
          "name": "",
          "type": "uint256"
        }
      ],
      "payable": false,
      "stateMutability": "view",
      "type": "function"
    },
    {
      "constant": true,
      "inputs": [
        {
          "internalType": "address",
          "name": "owner",
          "type": "address"
        },
        {
          "internalType": "uint256",
          "name": "index",
          "type": "uint256"
        }
      ],
      "name": "tokenOfOwnerByIndex",
      "outputs": [
        {
          "internalType": "uint256",
          "name": "",
          "type": "uint256"
        }
      ],
      "payable": false,
      "stateMutability": "view",
      "type": "function"
    },
    {
      "constant": true,
      "inputs": [
        {
          "internalType": "uint256",
          "name": "tokenId",
          "type": "uint256"
        }
      ],
      "name": "tokenURI",
      "outputs": [
        {
          "internalType": "string",
          "name": "",
          "type": "string"
        }
      ],
      "payable": false,
      "stateMutability": "view",
      "type": "function"
    },
    {
      "constant": true,
      "inputs": [
        {
          "internalType": "address",
          "name": "_owner",
          "type": "address"
        }
      ],
      "name": "tokensOfOwner",
      "outputs": [
        {
          "internalType": "uint256[]",
          "name": "",
          "type": "uint256[]"
        }
      ],
      "payable": false,
      "stateMutability": "view",
      "type": "function"
    },
    {
      "constant": true,
      "inputs": [],
      "name": "totalSupply",
      "outputs": [
        {
          "internalType": "uint256",
          "name": "",
          "type": "uint256"
        }
      ],
      "payable": false,
      "stateMutability": "view",
      "type": "function"
    },
    {
      "constant": false,
      "inputs": [
        {
          "internalType": "address",
          "name": "from",
          "type": "address"
        },
        {
          "internalType": "address",
          "name": "to",
          "type": "address"
        },
        {
          "internalType": "uint256",
          "name": "tokenId",
          "type": "uint256"
        }
      ],
      "name": "transferFrom",
      "outputs": [],
      "payable": false,
      "stateMutability": "nonpayable",
      "type": "function"
    },
    {
      "constant": false,
      "inputs": [
        {
          "internalType": "address",
          "name": "newOwner",
          "type": "address"
        }
      ],
      "name": "transferOwnership",
      "outputs": [],
      "payable": false,
      "stateMutability": "nonpayable",
      "type": "function"
    },
    {
      "constant": false,
      "inputs": [
        {
          "internalType": "uint256",
          "name": "_plannetIdx",
          "type": "uint256"
        },
        {
          "internalType": "bool",
          "name": "_allowed",
          "type": "bool"
        }
      ],
      "name": "updatePlannet",
      "outputs": [],
      "payable": false,
      "stateMutability": "nonpayable",
      "type": "function"
    }
  ]
}